{
  "_format": "hh-sol-artifact-1",
  "contractName": "CredibilityScoring",
  "sourceName": "contracts/CredibilityScoring.sol",
  "abi": [
    {
      "anonymous": false,
      "inputs": [
        {
          "indexed": false,
          "internalType": "address",
          "name": "driver",
          "type": "address"
        }
      ],
      "name": "DriverRegistered",
      "type": "event"
    },
    {
      "anonymous": false,
      "inputs": [
        {
          "indexed": true,
          "internalType": "address",
          "name": "previousOwner",
          "type": "address"
        },
        {
          "indexed": true,
          "internalType": "address",
          "name": "newOwner",
          "type": "address"
        }
      ],
      "name": "OwnershipTransferred",
      "type": "event"
    },
    {
      "anonymous": false,
      "inputs": [
        {
          "indexed": false,
          "internalType": "address",
          "name": "driver",
          "type": "address"
        },
        {
          "indexed": false,
          "internalType": "uint256",
          "name": "newScore",
          "type": "uint256"
        }
      ],
      "name": "ScoreUpdated",
      "type": "event"
    },
    {
      "anonymous": false,
      "inputs": [
        {
          "indexed": false,
          "internalType": "address",
          "name": "driver",
          "type": "address"
        },
        {
          "indexed": false,
          "internalType": "uint256",
          "name": "penalty",
          "type": "uint256"
        }
      ],
      "name": "ViolationRecorded",
      "type": "event"
    },
    {
      "inputs": [
        {
          "internalType": "address",
          "name": "",
          "type": "address"
        }
      ],
      "name": "driverScores",
      "outputs": [
        {
          "internalType": "uint256",
          "name": "score",
          "type": "uint256"
        },
        {
          "internalType": "uint256",
          "name": "totalRides",
          "type": "uint256"
        },
        {
          "internalType": "uint256",
          "name": "violations",
          "type": "uint256"
        },
        {
          "internalType": "uint256",
          "name": "lastUpdated",
          "type": "uint256"
        }
      ],
      "stateMutability": "view",
      "type": "function"
    },
    {
      "inputs": [
        {
          "internalType": "address",
          "name": "driver",
          "type": "address"
        }
      ],
      "name": "getScore",
      "outputs": [
        {
          "components": [
            {
              "internalType": "uint256",
              "name": "score",
              "type": "uint256"
            },
            {
              "internalType": "uint256",
              "name": "totalRides",
              "type": "uint256"
            },
            {
              "internalType": "uint256",
              "name": "violations",
              "type": "uint256"
            },
            {
              "internalType": "uint256",
              "name": "lastUpdated",
              "type": "uint256"
            }
          ],
          "internalType": "struct CredibilityScoring.DriverScore",
          "name": "",
          "type": "tuple"
        }
      ],
      "stateMutability": "view",
      "type": "function"
    },
    {
      "inputs": [],
      "name": "owner",
      "outputs": [
        {
          "internalType": "address",
          "name": "",
          "type": "address"
        }
      ],
      "stateMutability": "view",
      "type": "function"
    },
    {
      "inputs": [
        {
          "internalType": "address",
          "name": "driver",
          "type": "address"
        },
        {
          "internalType": "uint256",
          "name": "penalty",
          "type": "uint256"
        }
      ],
      "name": "recordViolation",
      "outputs": [],
      "stateMutability": "nonpayable",
      "type": "function"
    },
    {
      "inputs": [
        {
          "internalType": "address",
          "name": "driver",
          "type": "address"
        }
      ],
      "name": "registerDriver",
      "outputs": [],
      "stateMutability": "nonpayable",
      "type": "function"
    },
    {
      "inputs": [],
      "name": "renounceOwnership",
      "outputs": [],
      "stateMutability": "nonpayable",
      "type": "function"
    },
    {
      "inputs": [
        {
          "internalType": "address",
          "name": "driver",
          "type": "address"
        },
        {
          "internalType": "uint256",
          "name": "reward",
          "type": "uint256"
        }
      ],
      "name": "rewardDriver",
      "outputs": [],
      "stateMutability": "nonpayable",
      "type": "function"
    },
    {
      "inputs": [
        {
          "internalType": "address",
          "name": "newOwner",
          "type": "address"
        }
      ],
      "name": "transferOwnership",
      "outputs": [],
      "stateMutability": "nonpayable",
      "type": "function"
    }
  ],
  "bytecode": "0x608060405234801561001057600080fd5b5061002d61002261003260201b60201c565b61003a60201b60201c565b6100fe565b600033905090565b60008060009054906101000a900473ffffffffffffffffffffffffffffffffffffffff169050816000806101000a81548173ffffffffffffffffffffffffffffffffffffffff021916908373ffffffffffffffffffffffffffffffffffffffff1602179055508173ffffffffffffffffffffffffffffffffffffffff168173ffffffffffffffffffffffffffffffffffffffff167f8be0079c531659141344cd1fd0a4f28419497f9722a3daafe3b4186f6b6457e060405160405180910390a35050565b610d358061010d6000396000f3fe608060405234801561001057600080fd5b50600436106100885760003560e01c8063d47875d01161005b578063d47875d0146100ed578063f0f4fd5e1461011d578063f2fde38b14610139578063f9f5a4cb1461015557610088565b8063715018a61461008d57806371a26f58146100975780638da5cb5b146100b3578063b99eaf63146100d1575b600080fd5b610095610188565b005b6100b160048036038101906100ac91906108ee565b61019c565b005b6100bb610305565b6040516100c8919061093d565b60405180910390f35b6100eb60048036038101906100e691906108ee565b61032e565b005b61010760048036038101906101029190610958565b61045a565b60405161011491906109e9565b60405180910390f35b61013760048036038101906101329190610958565b6104db565b005b610153600480360381019061014e9190610958565b610630565b005b61016f600480360381019061016a9190610958565b6106b3565b60405161017f9493929190610a13565b60405180910390f35b6101906106e3565b61019a6000610761565b565b6101a46106e3565b6000600160008473ffffffffffffffffffffffffffffffffffffffff1673ffffffffffffffffffffffffffffffffffffffff1681526020019081526020016000209050600081600001541161022e576040517f08c379a000000000000000000000000000000000000000000000000000000000815260040161022590610ab5565b60405180910390fd5b60018160020160008282546102439190610b04565b925050819055508181600001541115610276578181600001600082825461026a9190610b38565b92505081905550610281565b600081600001819055505b4281600301819055507fd3cd661d5f08b876bb56c4e03baced12c9d74458486037d276407c3480e3e96d83836040516102bb929190610b6c565b60405180910390a17f66ead48cfe0e1d1aa8bad492e906c348dfcfeecbf3b7b2cdf9b1f3cfa42a29458382600001546040516102f8929190610b6c565b60405180910390a1505050565b60008060009054906101000a900473ffffffffffffffffffffffffffffffffffffffff16905090565b6103366106e3565b6000600160008473ffffffffffffffffffffffffffffffffffffffff1673ffffffffffffffffffffffffffffffffffffffff168152602001908152602001600020905060008160000154116103c0576040517f08c379a00000000000000000000000000000000000000000000000000000000081526004016103b790610ab5565b60405180910390fd5b60018160010160008282546103d59190610b04565b92505081905550818160000160008282546103f09190610b04565b9250508190555060648160000154111561040f57606481600001819055505b4281600301819055507f66ead48cfe0e1d1aa8bad492e906c348dfcfeecbf3b7b2cdf9b1f3cfa42a294583826000015460405161044d929190610b6c565b60405180910390a1505050565b61046261082d565b600160008373ffffffffffffffffffffffffffffffffffffffff1673ffffffffffffffffffffffffffffffffffffffff1681526020019081526020016000206040518060800160405290816000820154815260200160018201548152602001600282015481526020016003820154815250509050919050565b6104e36106e3565b6000600160008373ffffffffffffffffffffffffffffffffffffffff1673ffffffffffffffffffffffffffffffffffffffff1681526020019081526020016000206000015414610568576040517f08c379a000000000000000000000000000000000000000000000000000000000815260040161055f90610be1565b60405180910390fd5b6040518060800160405280604b8152602001600081526020016000815260200142815250600160008373ffffffffffffffffffffffffffffffffffffffff1673ffffffffffffffffffffffffffffffffffffffff168152602001908152602001600020600082015181600001556020820151816001015560408201518160020155606082015181600301559050507fbe5e7a1c543800c6abb49749a131598b050660d403a09b2e31318c2048c00d7481604051610625919061093d565b60405180910390a150565b6106386106e3565b600073ffffffffffffffffffffffffffffffffffffffff168173ffffffffffffffffffffffffffffffffffffffff16036106a7576040517f08c379a000000000000000000000000000000000000000000000000000000000815260040161069e90610c73565b60405180910390fd5b6106b081610761565b50565b60016020528060005260406000206000915090508060000154908060010154908060020154908060030154905084565b6106eb610825565b73ffffffffffffffffffffffffffffffffffffffff16610709610305565b73ffffffffffffffffffffffffffffffffffffffff161461075f576040517f08c379a000000000000000000000000000000000000000000000000000000000815260040161075690610cdf565b60405180910390fd5b565b60008060009054906101000a900473ffffffffffffffffffffffffffffffffffffffff169050816000806101000a81548173ffffffffffffffffffffffffffffffffffffffff021916908373ffffffffffffffffffffffffffffffffffffffff1602179055508173ffffffffffffffffffffffffffffffffffffffff168173ffffffffffffffffffffffffffffffffffffffff167f8be0079c531659141344cd1fd0a4f28419497f9722a3daafe3b4186f6b6457e060405160405180910390a35050565b600033905090565b6040518060800160405280600081526020016000815260200160008152602001600081525090565b600080fd5b600073ffffffffffffffffffffffffffffffffffffffff82169050919050565b60006108858261085a565b9050919050565b6108958161087a565b81146108a057600080fd5b50565b6000813590506108b28161088c565b92915050565b6000819050919050565b6108cb816108b8565b81146108d657600080fd5b50565b6000813590506108e8816108c2565b92915050565b6000806040838503121561090557610904610855565b5b6000610913858286016108a3565b9250506020610924858286016108d9565b9150509250929050565b6109378161087a565b82525050565b6000602082019050610952600083018461092e565b92915050565b60006020828403121561096e5761096d610855565b5b600061097c848285016108a3565b91505092915050565b61098e816108b8565b82525050565b6080820160008201516109aa6000850182610985565b5060208201516109bd6020850182610985565b5060408201516109d06040850182610985565b5060608201516109e36060850182610985565b50505050565b60006080820190506109fe6000830184610994565b92915050565b610a0d816108b8565b82525050565b6000608082019050610a286000830187610a04565b610a356020830186610a04565b610a426040830185610a04565b610a4f6060830184610a04565b95945050505050565b600082825260208201905092915050565b7f447269766572206e6f7420726567697374657265640000000000000000000000600082015250565b6000610a9f601583610a58565b9150610aaa82610a69565b602082019050919050565b60006020820190508181036000830152610ace81610a92565b9050919050565b7f4e487b7100000000000000000000000000000000000000000000000000000000600052601160045260246000fd5b6000610b0f826108b8565b9150610b1a836108b8565b9250828201905080821115610b3257610b31610ad5565b5b92915050565b6000610b43826108b8565b9150610b4e836108b8565b9250828203905081811115610b6657610b65610ad5565b5b92915050565b6000604082019050610b81600083018561092e565b610b8e6020830184610a04565b9392505050565b7f416c726561647920726567697374657265640000000000000000000000000000600082015250565b6000610bcb601283610a58565b9150610bd682610b95565b602082019050919050565b60006020820190508181036000830152610bfa81610bbe565b9050919050565b7f4f776e61626c653a206e6577206f776e657220697320746865207a65726f206160008201527f6464726573730000000000000000000000000000000000000000000000000000602082015250565b6000610c5d602683610a58565b9150610c6882610c01565b604082019050919050565b60006020820190508181036000830152610c8c81610c50565b9050919050565b7f4f776e61626c653a2063616c6c6572206973206e6f7420746865206f776e6572600082015250565b6000610cc9602083610a58565b9150610cd482610c93565b602082019050919050565b60006020820190508181036000830152610cf881610cbc565b905091905056fea26469706673582212202c9b49500c9f9fe7c87e0a30c8d185b465621c505ed4cae39124f06ba1d0de9b64736f6c63430008180033",
  "linkReferences": {},
  "deployedLinkReferences": {}
}