{
  "_format": "hh-sol-artifact-1",
  "contractName": "DAOGovernance",
  "sourceName": "contracts/DAOGovernance.sol",
  "abi": [
    {
      "anonymous": false,
      "inputs": [
        {
          "indexed": true,
          "internalType": "address",
          "name": "previousOwner",
          "type": "address"
        },
        {
          "indexed": true,
          "internalType": "address",
          "name": "newOwner",
          "type": "address"
        }
      ],
      "name": "OwnershipTransferred",
      "type": "event"
    },
    {
      "anonymous": false,
      "inputs": [
        {
          "indexed": false,
          "internalType": "uint256",
          "name": "id",
          "type": "uint256"
        },
        {
          "indexed": false,
          "internalType": "string",
          "name": "description",
          "type": "string"
        }
      ],
      "name": "ProposalCreated",
      "type": "event"
    },
    {
      "anonymous": false,
      "inputs": [
        {
          "indexed": false,
          "internalType": "uint256",
          "name": "proposalId",
          "type": "uint256"
        }
      ],
      "name": "ProposalExecuted",
      "type": "event"
    },
    {
      "anonymous": false,
      "inputs": [
        {
          "indexed": false,
          "internalType": "uint256",
          "name": "proposalId",
          "type": "uint256"
        },
        {
          "indexed": false,
          "internalType": "address",
          "name": "voter",
          "type": "address"
        },
        {
          "indexed": false,
          "internalType": "bool",
          "name": "support",
          "type": "bool"
        }
      ],
      "name": "Voted",
      "type": "event"
    },
    {
      "inputs": [
        {
          "internalType": "string",
          "name": "description",
          "type": "string"
        }
      ],
      "name": "createProposal",
      "outputs": [],
      "stateMutability": "nonpayable",
      "type": "function"
    },
    {
      "inputs": [
        {
          "internalType": "uint256",
          "name": "proposalId",
          "type": "uint256"
        }
      ],
      "name": "executeProposal",
      "outputs": [],
      "stateMutability": "nonpayable",
      "type": "function"
    },
    {
      "inputs": [
        {
          "internalType": "uint256",
          "name": "proposalId",
          "type": "uint256"
        }
      ],
      "name": "getProposal",
      "outputs": [
        {
          "components": [
            {
              "internalType": "uint256",
              "name": "id",
              "type": "uint256"
            },
            {
              "internalType": "string",
              "name": "description",
              "type": "string"
            },
            {
              "internalType": "uint256",
              "name": "votesFor",
              "type": "uint256"
            },
            {
              "internalType": "uint256",
              "name": "votesAgainst",
              "type": "uint256"
            },
            {
              "internalType": "uint256",
              "name": "deadline",
              "type": "uint256"
            },
            {
              "internalType": "bool",
              "name": "executed",
              "type": "bool"
            }
          ],
          "internalType": "struct DAOGovernance.Proposal",
          "name": "",
          "type": "tuple"
        }
      ],
      "stateMutability": "view",
      "type": "function"
    },
    {
      "inputs": [
        {
          "internalType": "uint256",
          "name": "",
          "type": "uint256"
        },
        {
          "internalType": "address",
          "name": "",
          "type": "address"
        }
      ],
      "name": "hasVoted",
      "outputs": [
        {
          "internalType": "bool",
          "name": "",
          "type": "bool"
        }
      ],
      "stateMutability": "view",
      "type": "function"
    },
    {
      "inputs": [],
      "name": "owner",
      "outputs": [
        {
          "internalType": "address",
          "name": "",
          "type": "address"
        }
      ],
      "stateMutability": "view",
      "type": "function"
    },
    {
      "inputs": [],
      "name": "proposalCount",
      "outputs": [
        {
          "internalType": "uint256",
          "name": "",
          "type": "uint256"
        }
      ],
      "stateMutability": "view",
      "type": "function"
    },
    {
      "inputs": [
        {
          "internalType": "uint256",
          "name": "",
          "type": "uint256"
        }
      ],
      "name": "proposals",
      "outputs": [
        {
          "internalType": "uint256",
          "name": "id",
          "type": "uint256"
        },
        {
          "internalType": "string",
          "name": "description",
          "type": "string"
        },
        {
          "internalType": "uint256",
          "name": "votesFor",
          "type": "uint256"
        },
        {
          "internalType": "uint256",
          "name": "votesAgainst",
          "type": "uint256"
        },
        {
          "internalType": "uint256",
          "name": "deadline",
          "type": "uint256"
        },
        {
          "internalType": "bool",
          "name": "executed",
          "type": "bool"
        }
      ],
      "stateMutability": "view",
      "type": "function"
    },
    {
      "inputs": [],
      "name": "renounceOwnership",
      "outputs": [],
      "stateMutability": "nonpayable",
      "type": "function"
    },
    {
      "inputs": [
        {
          "internalType": "address",
          "name": "newOwner",
          "type": "address"
        }
      ],
      "name": "transferOwnership",
      "outputs": [],
      "stateMutability": "nonpayable",
      "type": "function"
    },
    {
      "inputs": [
        {
          "internalType": "uint256",
          "name": "proposalId",
          "type": "uint256"
        },
        {
          "internalType": "bool",
          "name": "support",
          "type": "bool"
        }
      ],
      "name": "vote",
      "outputs": [],
      "stateMutability": "nonpayable",
      "type": "function"
    },
    {
      "inputs": [],
      "name": "votingDuration",
      "outputs": [
        {
          "internalType": "uint256",
          "name": "",
          "type": "uint256"
        }
      ],
      "stateMutability": "view",
      "type": "function"
    }
  ],
  "bytecode": "0x608060405262093a8060045534801561001757600080fd5b5061003461002961003960201b60201c565b61004160201b60201c565b610105565b600033905090565b60008060009054906101000a900473ffffffffffffffffffffffffffffffffffffffff169050816000806101000a81548173ffffffffffffffffffffffffffffffffffffffff021916908373ffffffffffffffffffffffffffffffffffffffff1602179055508173ffffffffffffffffffffffffffffffffffffffff168173ffffffffffffffffffffffffffffffffffffffff167f8be0079c531659141344cd1fd0a4f28419497f9722a3daafe3b4186f6b6457e060405160405180910390a35050565b6117ab806101146000396000f3fe608060405234801561001057600080fd5b50600436106100a95760003560e01c8063715018a611610071578063715018a6146101695780638da5cb5b14610173578063c7f758a814610191578063c9d27afe146101c1578063da35c664146101dd578063f2fde38b146101fb576100a9565b8063013cf08b146100ae5780630d61b519146100e3578063132002fc146100ff578063438596321461011d57806349c2a1a61461014d575b600080fd5b6100c860048036038101906100c39190610af4565b610217565b6040516100da96959493929190610bdb565b60405180910390f35b6100fd60048036038101906100f89190610af4565b6102e8565b005b61010761043a565b6040516101149190610c43565b60405180910390f35b61013760048036038101906101329190610cbc565b610440565b6040516101449190610cfc565b60405180910390f35b61016760048036038101906101629190610e4c565b61046f565b005b61017161057c565b005b61017b610590565b6040516101889190610ea4565b60405180910390f35b6101ab60048036038101906101a69190610af4565b6105b9565b6040516101b89190610fb0565b60405180910390f35b6101db60048036038101906101d69190610ffe565b6106bb565b005b6101e561089f565b6040516101f29190610c43565b60405180910390f35b6102156004803603810190610210919061103e565b6108a5565b005b60026020528060005260406000206000915090508060000154908060010180546102409061109a565b80601f016020809104026020016040519081016040528092919081815260200182805461026c9061109a565b80156102b95780601f1061028e576101008083540402835291602001916102b9565b820191906000526020600020905b81548152906001019060200180831161029c57829003601f168201915b5050505050908060020154908060030154908060040154908060050160009054906101000a900460ff16905086565b60006002600083815260200190815260200160002090508060040154421015610346576040517f08c379a000000000000000000000000000000000000000000000000000000000815260040161033d90611117565b60405180910390fd5b8060050160009054906101000a900460ff1615610398576040517f08c379a000000000000000000000000000000000000000000000000000000000815260040161038f90611183565b60405180910390fd5b80600301548160020154116103e2576040517f08c379a00000000000000000000000000000000000000000000000000000000081526004016103d9906111ef565b60405180910390fd5b60018160050160006101000a81548160ff0219169083151502179055507f712ae1383f79ac853f8d882153778e0260ef8f03b504e2866e0593e04d2b291f8260405161042e9190610c43565b60405180910390a15050565b60045481565b60036020528160005260406000206020528060005260406000206000915091509054906101000a900460ff1681565b6040518060c0016040528060015481526020018281526020016000815260200160008152602001600454426104a4919061123e565b8152602001600015158152506002600060015481526020019081526020016000206000820151816000015560208201518160010190816104e4919061141e565b5060408201518160020155606082015181600301556080820151816004015560a08201518160050160006101000a81548160ff0219169083151502179055509050507f9c770c289ab5bf7e57cb1d23c8ceae993aea46eb64847072fd3d78ca60d3e432600154826040516105599291906114f0565b60405180910390a16001600081548092919061057490611520565b919050555050565b610584610928565b61058e60006109a6565b565b60008060009054906101000a900473ffffffffffffffffffffffffffffffffffffffff16905090565b6105c1610a72565b600260008381526020019081526020016000206040518060c0016040529081600082015481526020016001820180546105f99061109a565b80601f01602080910402602001604051908101604052809291908181526020018280546106259061109a565b80156106725780601f1061064757610100808354040283529160200191610672565b820191906000526020600020905b81548152906001019060200180831161065557829003601f168201915b505050505081526020016002820154815260200160038201548152602001600482015481526020016005820160009054906101000a900460ff1615151515815250509050919050565b600060026000848152602001908152602001600020905080600401544210610718576040517f08c379a000000000000000000000000000000000000000000000000000000000815260040161070f906115b4565b60405180910390fd5b6003600084815260200190815260200160002060003373ffffffffffffffffffffffffffffffffffffffff1673ffffffffffffffffffffffffffffffffffffffff16815260200190815260200160002060009054906101000a900460ff16156107b6576040517f08c379a00000000000000000000000000000000000000000000000000000000081526004016107ad90611620565b60405180910390fd5b60016003600085815260200190815260200160002060003373ffffffffffffffffffffffffffffffffffffffff1673ffffffffffffffffffffffffffffffffffffffff16815260200190815260200160002060006101000a81548160ff02191690831515021790555081156108445780600201600081548092919061083a90611520565b919050555061085f565b80600301600081548092919061085990611520565b91905055505b7ff2913dbe661ee2acc4a046d8fbcdc792373bda34c41c6086484b5345e5785e5f83338460405161089293929190611640565b60405180910390a1505050565b60015481565b6108ad610928565b600073ffffffffffffffffffffffffffffffffffffffff168173ffffffffffffffffffffffffffffffffffffffff160361091c576040517f08c379a0000000000000000000000000000000000000000000000000000000008152600401610913906116e9565b60405180910390fd5b610925816109a6565b50565b610930610a6a565b73ffffffffffffffffffffffffffffffffffffffff1661094e610590565b73ffffffffffffffffffffffffffffffffffffffff16146109a4576040517f08c379a000000000000000000000000000000000000000000000000000000000815260040161099b90611755565b60405180910390fd5b565b60008060009054906101000a900473ffffffffffffffffffffffffffffffffffffffff169050816000806101000a81548173ffffffffffffffffffffffffffffffffffffffff021916908373ffffffffffffffffffffffffffffffffffffffff1602179055508173ffffffffffffffffffffffffffffffffffffffff168173ffffffffffffffffffffffffffffffffffffffff167f8be0079c531659141344cd1fd0a4f28419497f9722a3daafe3b4186f6b6457e060405160405180910390a35050565b600033905090565b6040518060c0016040528060008152602001606081526020016000815260200160008152602001600081526020016000151581525090565b6000604051905090565b600080fd5b600080fd5b6000819050919050565b610ad181610abe565b8114610adc57600080fd5b50565b600081359050610aee81610ac8565b92915050565b600060208284031215610b0a57610b09610ab4565b5b6000610b1884828501610adf565b91505092915050565b610b2a81610abe565b82525050565b600081519050919050565b600082825260208201905092915050565b60005b83811015610b6a578082015181840152602081019050610b4f565b60008484015250505050565b6000601f19601f8301169050919050565b6000610b9282610b30565b610b9c8185610b3b565b9350610bac818560208601610b4c565b610bb581610b76565b840191505092915050565b60008115159050919050565b610bd581610bc0565b82525050565b600060c082019050610bf06000830189610b21565b8181036020830152610c028188610b87565b9050610c116040830187610b21565b610c1e6060830186610b21565b610c2b6080830185610b21565b610c3860a0830184610bcc565b979650505050505050565b6000602082019050610c586000830184610b21565b92915050565b600073ffffffffffffffffffffffffffffffffffffffff82169050919050565b6000610c8982610c5e565b9050919050565b610c9981610c7e565b8114610ca457600080fd5b50565b600081359050610cb681610c90565b92915050565b60008060408385031215610cd357610cd2610ab4565b5b6000610ce185828601610adf565b9250506020610cf285828601610ca7565b9150509250929050565b6000602082019050610d116000830184610bcc565b92915050565b600080fd5b600080fd5b7f4e487b7100000000000000000000000000000000000000000000000000000000600052604160045260246000fd5b610d5982610b76565b810181811067ffffffffffffffff82111715610d7857610d77610d21565b5b80604052505050565b6000610d8b610aaa565b9050610d978282610d50565b919050565b600067ffffffffffffffff821115610db757610db6610d21565b5b610dc082610b76565b9050602081019050919050565b82818337600083830152505050565b6000610def610dea84610d9c565b610d81565b905082815260208101848484011115610e0b57610e0a610d1c565b5b610e16848285610dcd565b509392505050565b600082601f830112610e3357610e32610d17565b5b8135610e43848260208601610ddc565b91505092915050565b600060208284031215610e6257610e61610ab4565b5b600082013567ffffffffffffffff811115610e8057610e7f610ab9565b5b610e8c84828501610e1e565b91505092915050565b610e9e81610c7e565b82525050565b6000602082019050610eb96000830184610e95565b92915050565b610ec881610abe565b82525050565b600082825260208201905092915050565b6000610eea82610b30565b610ef48185610ece565b9350610f04818560208601610b4c565b610f0d81610b76565b840191505092915050565b610f2181610bc0565b82525050565b600060c083016000830151610f3f6000860182610ebf565b5060208301518482036020860152610f578282610edf565b9150506040830151610f6c6040860182610ebf565b506060830151610f7f6060860182610ebf565b506080830151610f926080860182610ebf565b5060a0830151610fa560a0860182610f18565b508091505092915050565b60006020820190508181036000830152610fca8184610f27565b905092915050565b610fdb81610bc0565b8114610fe657600080fd5b50565b600081359050610ff881610fd2565b92915050565b6000806040838503121561101557611014610ab4565b5b600061102385828601610adf565b925050602061103485828601610fe9565b9150509250929050565b60006020828403121561105457611053610ab4565b5b600061106284828501610ca7565b91505092915050565b7f4e487b7100000000000000000000000000000000000000000000000000000000600052602260045260246000fd5b600060028204905060018216806110b257607f821691505b6020821081036110c5576110c461106b565b5b50919050565b7f566f74696e67206f6e676f696e67000000000000000000000000000000000000600082015250565b6000611101600e83610b3b565b915061110c826110cb565b602082019050919050565b60006020820190508181036000830152611130816110f4565b9050919050565b7f416c726561647920657865637574656400000000000000000000000000000000600082015250565b600061116d601083610b3b565b915061117882611137565b602082019050919050565b6000602082019050818103600083015261119c81611160565b9050919050565b7f4e6f7420617070726f7665640000000000000000000000000000000000000000600082015250565b60006111d9600c83610b3b565b91506111e4826111a3565b602082019050919050565b60006020820190508181036000830152611208816111cc565b9050919050565b7f4e487b7100000000000000000000000000000000000000000000000000000000600052601160045260246000fd5b600061124982610abe565b915061125483610abe565b925082820190508082111561126c5761126b61120f565b5b92915050565b60008190508160005260206000209050919050565b60006020601f8301049050919050565b600082821b905092915050565b6000600883026112d47fffffffffffffffffffffffffffffffffffffffffffffffffffffffffffffffff82611297565b6112de8683611297565b95508019841693508086168417925050509392505050565b6000819050919050565b600061131b61131661131184610abe565b6112f6565b610abe565b9050919050565b6000819050919050565b61133583611300565b61134961134182611322565b8484546112a4565b825550505050565b600090565b61135e611351565b61136981848461132c565b505050565b5b8181101561138d57611382600082611356565b60018101905061136f565b5050565b601f8211156113d2576113a381611272565b6113ac84611287565b810160208510156113bb578190505b6113cf6113c785611287565b83018261136e565b50505b505050565b600082821c905092915050565b60006113f5600019846008026113d7565b1980831691505092915050565b600061140e83836113e4565b9150826002028217905092915050565b61142782610b30565b67ffffffffffffffff8111156114405761143f610d21565b5b61144a825461109a565b611455828285611391565b600060209050601f8311600181146114885760008415611476578287015190505b6114808582611402565b8655506114e8565b601f19841661149686611272565b60005b828110156114be57848901518255600182019150602085019450602081019050611499565b868310156114db57848901516114d7601f8916826113e4565b8355505b6001600288020188555050505b505050505050565b60006040820190506115056000830185610b21565b81810360208301526115178184610b87565b90509392505050565b600061152b82610abe565b91507fffffffffffffffffffffffffffffffffffffffffffffffffffffffffffffffff820361155d5761155c61120f565b5b600182019050919050565b7f566f74696e6720656e6465640000000000000000000000000000000000000000600082015250565b600061159e600c83610b3b565b91506115a982611568565b602082019050919050565b600060208201905081810360008301526115cd81611591565b9050919050565b7f416c726561647920766f74656400000000000000000000000000000000000000600082015250565b600061160a600d83610b3b565b9150611615826115d4565b602082019050919050565b60006020820190508181036000830152611639816115fd565b9050919050565b60006060820190506116556000830186610b21565b6116626020830185610e95565b61166f6040830184610bcc565b949350505050565b7f4f776e61626c653a206e6577206f776e657220697320746865207a65726f206160008201527f6464726573730000000000000000000000000000000000000000000000000000602082015250565b60006116d3602683610b3b565b91506116de82611677565b604082019050919050565b60006020820190508181036000830152611702816116c6565b9050919050565b7f4f776e61626c653a2063616c6c6572206973206e6f7420746865206f776e6572600082015250565b600061173f602083610b3b565b915061174a82611709565b602082019050919050565b6000602082019050818103600083015261176e81611732565b905091905056fea26469706673582212207c14952cf979cd95b395e588448c60f1318f71acec447db8f41eea440dea488f64736f6c63430008180033",
  "linkReferences": {},
  "deployedLinkReferences": {}
}