{
  "_format": "hh-sol-artifact-1",
  "contractName": "RidePaymentEscrow",
  "sourceName": "contracts/RidePaymentEscrow.sol",
  "abi": [
    {
      "anonymous": false,
      "inputs": [
        {
          "indexed": true,
          "internalType": "address",
          "name": "previousOwner",
          "type": "address"
        },
        {
          "indexed": true,
          "internalType": "address",
          "name": "newOwner",
          "type": "address"
        }
      ],
      "name": "OwnershipTransferred",
      "type": "event"
    },
    {
      "anonymous": false,
      "inputs": [
        {
          "indexed": false,
          "internalType": "uint256",
          "name": "rideId",
          "type": "uint256"
        }
      ],
      "name": "RideCancelled",
      "type": "event"
    },
    {
      "anonymous": false,
      "inputs": [
        {
          "indexed": false,
          "internalType": "uint256",
          "name": "rideId",
          "type": "uint256"
        },
        {
          "indexed": false,
          "internalType": "address",
          "name": "driver",
          "type": "address"
        }
      ],
      "name": "RideCompleted",
      "type": "event"
    },
    {
      "anonymous": false,
      "inputs": [
        {
          "indexed": false,
          "internalType": "uint256",
          "name": "rideId",
          "type": "uint256"
        },
        {
          "indexed": false,
          "internalType": "address",
          "name": "rider",
          "type": "address"
        },
        {
          "indexed": false,
          "internalType": "uint256",
          "name": "amount",
          "type": "uint256"
        }
      ],
      "name": "RideCreated",
      "type": "event"
    },
    {
      "anonymous": false,
      "inputs": [
        {
          "indexed": false,
          "internalType": "uint256",
          "name": "rideId",
          "type": "uint256"
        }
      ],
      "name": "RideDisputed",
      "type": "event"
    },
    {
      "inputs": [
        {
          "internalType": "uint256",
          "name": "rideId",
          "type": "uint256"
        }
      ],
      "name": "cancelRide",
      "outputs": [],
      "stateMutability": "nonpayable",
      "type": "function"
    },
    {
      "inputs": [
        {
          "internalType": "uint256",
          "name": "rideId",
          "type": "uint256"
        }
      ],
      "name": "completeRide",
      "outputs": [],
      "stateMutability": "nonpayable",
      "type": "function"
    },
    {
      "inputs": [
        {
          "internalType": "uint256",
          "name": "rideId",
          "type": "uint256"
        },
        {
          "internalType": "address",
          "name": "driver",
          "type": "address"
        }
      ],
      "name": "createRide",
      "outputs": [],
      "stateMutability": "payable",
      "type": "function"
    },
    {
      "inputs": [],
      "name": "owner",
      "outputs": [
        {
          "internalType": "address",
          "name": "",
          "type": "address"
        }
      ],
      "stateMutability": "view",
      "type": "function"
    },
    {
      "inputs": [
        {
          "internalType": "uint256",
          "name": "rideId",
          "type": "uint256"
        }
      ],
      "name": "raiseDispute",
      "outputs": [],
      "stateMutability": "nonpayable",
      "type": "function"
    },
    {
      "inputs": [],
      "name": "renounceOwnership",
      "outputs": [],
      "stateMutability": "nonpayable",
      "type": "function"
    },
    {
      "inputs": [
        {
          "internalType": "uint256",
          "name": "rideId",
          "type": "uint256"
        },
        {
          "internalType": "bool",
          "name": "payDriver",
          "type": "bool"
        }
      ],
      "name": "resolveDispute",
      "outputs": [],
      "stateMutability": "nonpayable",
      "type": "function"
    },
    {
      "inputs": [
        {
          "internalType": "uint256",
          "name": "",
          "type": "uint256"
        }
      ],
      "name": "rides",
      "outputs": [
        {
          "internalType": "address",
          "name": "rider",
          "type": "address"
        },
        {
          "internalType": "address",
          "name": "driver",
          "type": "address"
        },
        {
          "internalType": "uint256",
          "name": "amount",
          "type": "uint256"
        },
        {
          "internalType": "enum RidePaymentEscrow.RideStatus",
          "name": "status",
          "type": "uint8"
        }
      ],
      "stateMutability": "view",
      "type": "function"
    },
    {
      "inputs": [
        {
          "internalType": "address",
          "name": "newOwner",
          "type": "address"
        }
      ],
      "name": "transferOwnership",
      "outputs": [],
      "stateMutability": "nonpayable",
      "type": "function"
    }
  ],
  "bytecode": "0x608060405234801561001057600080fd5b5061002d61002261003260201b60201c565b61003a60201b60201c565b6100fe565b600033905090565b60008060009054906101000a900473ffffffffffffffffffffffffffffffffffffffff169050816000806101000a81548173ffffffffffffffffffffffffffffffffffffffff021916908373ffffffffffffffffffffffffffffffffffffffff1602179055508173ffffffffffffffffffffffffffffffffffffffff168173ffffffffffffffffffffffffffffffffffffffff167f8be0079c531659141344cd1fd0a4f28419497f9722a3daafe3b4186f6b6457e060405160405180910390a35050565b6115d68061010d6000396000f3fe6080604052600436106100865760003560e01c80638da5cb5b116100595780638da5cb5b14610127578063a5c1674e14610152578063a6f07b291461017b578063c416dd0b146101a4578063f2fde38b146101cd57610086565b806321795bd61461008b57806334b25ee2146100a75780635205f112146100d0578063715018a614610110575b600080fd5b6100a560048036038101906100a09190610eaf565b6101f6565b005b3480156100b357600080fd5b506100ce60048036038101906100c99190610f27565b61045b565b005b3480156100dc57600080fd5b506100f760048036038101906100f29190610f67565b61060e565b6040516101079493929190611029565b60405180910390f35b34801561011c57600080fd5b5061012561068b565b005b34801561013357600080fd5b5061013c61069f565b604051610149919061106e565b60405180910390f35b34801561015e57600080fd5b5061017960048036038101906101749190610f67565b6106c8565b005b34801561018757600080fd5b506101a2600480360381019061019d9190610f67565b610833565b005b3480156101b057600080fd5b506101cb60048036038101906101c69190610f67565b610a2b565b005b3480156101d957600080fd5b506101f460048036038101906101ef9190611089565b610c49565b005b600073ffffffffffffffffffffffffffffffffffffffff166001600084815260200190815260200160002060000160009054906101000a900473ffffffffffffffffffffffffffffffffffffffff1673ffffffffffffffffffffffffffffffffffffffff161461029b576040517f08c379a000000000000000000000000000000000000000000000000000000000815260040161029290611113565b60405180910390fd5b600034116102de576040517f08c379a00000000000000000000000000000000000000000000000000000000081526004016102d59061117f565b60405180910390fd5b60405180608001604052803373ffffffffffffffffffffffffffffffffffffffff1681526020018273ffffffffffffffffffffffffffffffffffffffff1681526020013481526020016000600381111561033b5761033a610fb2565b5b8152506001600084815260200190815260200160002060008201518160000160006101000a81548173ffffffffffffffffffffffffffffffffffffffff021916908373ffffffffffffffffffffffffffffffffffffffff16021790555060208201518160010160006101000a81548173ffffffffffffffffffffffffffffffffffffffff021916908373ffffffffffffffffffffffffffffffffffffffff1602179055506040820151816002015560608201518160030160006101000a81548160ff0219169083600381111561041457610413610fb2565b5b02179055509050507fd703df647e2a42b8bd82f2c8b30ca4105875d0e0044e4b0e16218b79ed2f20a082333460405161044f9392919061119f565b60405180910390a15050565b610463610ccc565b60006001600084815260200190815260200160002090506002600381111561048e5761048d610fb2565b5b8160030160009054906101000a900460ff1660038111156104b2576104b1610fb2565b5b146104f2576040517f08c379a00000000000000000000000000000000000000000000000000000000081526004016104e990611222565b60405180910390fd5b811561056c578060010160009054906101000a900473ffffffffffffffffffffffffffffffffffffffff1673ffffffffffffffffffffffffffffffffffffffff166108fc82600201549081150290604051600060405180830381858888f19350505050158015610566573d6000803e3d6000fd5b506105dc565b8060000160009054906101000a900473ffffffffffffffffffffffffffffffffffffffff1673ffffffffffffffffffffffffffffffffffffffff166108fc82600201549081150290604051600060405180830381858888f193505050501580156105da573d6000803e3d6000fd5b505b60018160030160006101000a81548160ff0219169083600381111561060457610603610fb2565b5b0217905550505050565b60016020528060005260406000206000915090508060000160009054906101000a900473ffffffffffffffffffffffffffffffffffffffff16908060010160009054906101000a900473ffffffffffffffffffffffffffffffffffffffff16908060020154908060030160009054906101000a900460ff16905084565b610693610ccc565b61069d6000610d4a565b565b60008060009054906101000a900473ffffffffffffffffffffffffffffffffffffffff16905090565b60006001600083815260200190815260200160002090508060000160009054906101000a900473ffffffffffffffffffffffffffffffffffffffff1673ffffffffffffffffffffffffffffffffffffffff163373ffffffffffffffffffffffffffffffffffffffff16148061078c57508060010160009054906101000a900473ffffffffffffffffffffffffffffffffffffffff1673ffffffffffffffffffffffffffffffffffffffff163373ffffffffffffffffffffffffffffffffffffffff16145b6107cb576040517f08c379a00000000000000000000000000000000000000000000000000000000081526004016107c29061128e565b60405180910390fd5b60028160030160006101000a81548160ff021916908360038111156107f3576107f2610fb2565b5b02179055507fca5288cc671cecfa4a857586e265a6d21b943dce9aa557d8acd803b437047e568260405161082791906112ae565b60405180910390a15050565b60006001600083815260200190815260200160002090508060000160009054906101000a900473ffffffffffffffffffffffffffffffffffffffff1673ffffffffffffffffffffffffffffffffffffffff163373ffffffffffffffffffffffffffffffffffffffff16146108dc576040517f08c379a00000000000000000000000000000000000000000000000000000000081526004016108d390611315565b60405180910390fd5b600060038111156108f0576108ef610fb2565b5b8160030160009054906101000a900460ff16600381111561091457610913610fb2565b5b14610954576040517f08c379a000000000000000000000000000000000000000000000000000000000815260040161094b90611381565b60405180910390fd5b60038160030160006101000a81548160ff0219169083600381111561097c5761097b610fb2565b5b02179055508060000160009054906101000a900473ffffffffffffffffffffffffffffffffffffffff1673ffffffffffffffffffffffffffffffffffffffff166108fc82600201549081150290604051600060405180830381858888f193505050501580156109ef573d6000803e3d6000fd5b507f0c23eb44b06124e00526761c3c77095fc814bb72c9be3ac1e58f0bc2ebfe4f7e82604051610a1f91906112ae565b60405180910390a15050565b600060016000838152602001908152602001600020905060006003811115610a5657610a55610fb2565b5b8160030160009054906101000a900460ff166003811115610a7a57610a79610fb2565b5b14610aba576040517f08c379a0000000000000000000000000000000000000000000000000000000008152600401610ab1906113ed565b60405180910390fd5b8060000160009054906101000a900473ffffffffffffffffffffffffffffffffffffffff1673ffffffffffffffffffffffffffffffffffffffff163373ffffffffffffffffffffffffffffffffffffffff1614610b4c576040517f08c379a0000000000000000000000000000000000000000000000000000000008152600401610b4390611459565b60405180910390fd5b60018160030160006101000a81548160ff02191690836003811115610b7457610b73610fb2565b5b02179055508060010160009054906101000a900473ffffffffffffffffffffffffffffffffffffffff1673ffffffffffffffffffffffffffffffffffffffff166108fc82600201549081150290604051600060405180830381858888f19350505050158015610be7573d6000803e3d6000fd5b507f293561dd13070ed4d83fa8683b4a93e939f52e0bb5fa61b0d25cc576bf437873828260010160009054906101000a900473ffffffffffffffffffffffffffffffffffffffff16604051610c3d929190611479565b60405180910390a15050565b610c51610ccc565b600073ffffffffffffffffffffffffffffffffffffffff168173ffffffffffffffffffffffffffffffffffffffff1603610cc0576040517f08c379a0000000000000000000000000000000000000000000000000000000008152600401610cb790611514565b60405180910390fd5b610cc981610d4a565b50565b610cd4610e0e565b73ffffffffffffffffffffffffffffffffffffffff16610cf261069f565b73ffffffffffffffffffffffffffffffffffffffff1614610d48576040517f08c379a0000000000000000000000000000000000000000000000000000000008152600401610d3f90611580565b60405180910390fd5b565b60008060009054906101000a900473ffffffffffffffffffffffffffffffffffffffff169050816000806101000a81548173ffffffffffffffffffffffffffffffffffffffff021916908373ffffffffffffffffffffffffffffffffffffffff1602179055508173ffffffffffffffffffffffffffffffffffffffff168173ffffffffffffffffffffffffffffffffffffffff167f8be0079c531659141344cd1fd0a4f28419497f9722a3daafe3b4186f6b6457e060405160405180910390a35050565b600033905090565b600080fd5b6000819050919050565b610e2e81610e1b565b8114610e3957600080fd5b50565b600081359050610e4b81610e25565b92915050565b600073ffffffffffffffffffffffffffffffffffffffff82169050919050565b6000610e7c82610e51565b9050919050565b610e8c81610e71565b8114610e9757600080fd5b50565b600081359050610ea981610e83565b92915050565b60008060408385031215610ec657610ec5610e16565b5b6000610ed485828601610e3c565b9250506020610ee585828601610e9a565b9150509250929050565b60008115159050919050565b610f0481610eef565b8114610f0f57600080fd5b50565b600081359050610f2181610efb565b92915050565b60008060408385031215610f3e57610f3d610e16565b5b6000610f4c85828601610e3c565b9250506020610f5d85828601610f12565b9150509250929050565b600060208284031215610f7d57610f7c610e16565b5b6000610f8b84828501610e3c565b91505092915050565b610f9d81610e71565b82525050565b610fac81610e1b565b82525050565b7f4e487b7100000000000000000000000000000000000000000000000000000000600052602160045260246000fd5b60048110610ff257610ff1610fb2565b5b50565b600081905061100382610fe1565b919050565b600061101382610ff5565b9050919050565b61102381611008565b82525050565b600060808201905061103e6000830187610f94565b61104b6020830186610f94565b6110586040830185610fa3565b611065606083018461101a565b95945050505050565b60006020820190506110836000830184610f94565b92915050565b60006020828403121561109f5761109e610e16565b5b60006110ad84828501610e9a565b91505092915050565b600082825260208201905092915050565b7f5269646520657869737473000000000000000000000000000000000000000000600082015250565b60006110fd600b836110b6565b9150611108826110c7565b602082019050919050565b6000602082019050818103600083015261112c816110f0565b9050919050565b7f5061796d656e7420726571756972656400000000000000000000000000000000600082015250565b60006111696010836110b6565b915061117482611133565b602082019050919050565b600060208201905081810360008301526111988161115c565b9050919050565b60006060820190506111b46000830186610fa3565b6111c16020830185610f94565b6111ce6040830184610fa3565b949350505050565b7f4e6f742064697370757465640000000000000000000000000000000000000000600082015250565b600061120c600c836110b6565b9150611217826111d6565b602082019050919050565b6000602082019050818103600083015261123b816111ff565b9050919050565b7f556e617574686f72697a65640000000000000000000000000000000000000000600082015250565b6000611278600c836110b6565b915061128382611242565b602082019050919050565b600060208201905081810360008301526112a78161126b565b9050919050565b60006020820190506112c36000830184610fa3565b92915050565b7f4f6e6c7920726964657200000000000000000000000000000000000000000000600082015250565b60006112ff600a836110b6565b915061130a826112c9565b602082019050919050565b6000602082019050818103600083015261132e816112f2565b9050919050565b7f43616e6e6f742063616e63656c00000000000000000000000000000000000000600082015250565b600061136b600d836110b6565b915061137682611335565b602082019050919050565b6000602082019050818103600083015261139a8161135e565b9050919050565b7f496e76616c696420737461746500000000000000000000000000000000000000600082015250565b60006113d7600d836110b6565b91506113e2826113a1565b602082019050919050565b60006020820190508181036000830152611406816113ca565b9050919050565b7f4f6e6c792072696465722063616e20636f6e6669726d00000000000000000000600082015250565b60006114436016836110b6565b915061144e8261140d565b602082019050919050565b6000602082019050818103600083015261147281611436565b9050919050565b600060408201905061148e6000830185610fa3565b61149b6020830184610f94565b9392505050565b7f4f776e61626c653a206e6577206f776e657220697320746865207a65726f206160008201527f6464726573730000000000000000000000000000000000000000000000000000602082015250565b60006114fe6026836110b6565b9150611509826114a2565b604082019050919050565b6000602082019050818103600083015261152d816114f1565b9050919050565b7f4f776e61626c653a2063616c6c6572206973206e6f7420746865206f776e6572600082015250565b600061156a6020836110b6565b915061157582611534565b602082019050919050565b600060208201905081810360008301526115998161155d565b905091905056fea26469706673582212209a50744fc8082e70ca4733981eb8d56f1f4cb1673cdf7357251fc1a6a3f26a3f64736f6c63430008180033",
  "linkReferences": {},
  "deployedLinkReferences": {}
}