{
  "_format": "hh-sol-artifact-1",
  "contractName": "RidePaymentEscrow",
  "sourceName": "contracts/RidePaymentEscrow.sol",
  "abi": [
    {
      "anonymous": false,
      "inputs": [
        {
          "indexed": true,
          "internalType": "address",
          "name": "previousOwner",
          "type": "address"
        },
        {
          "indexed": true,
          "internalType": "address",
          "name": "newOwner",
          "type": "address"
        }
      ],
      "name": "OwnershipTransferred",
      "type": "event"
    },
    {
      "anonymous": false,
      "inputs": [
        {
          "indexed": false,
          "internalType": "string",
          "name": "rideId",
          "type": "string"
        }
      ],
      "name": "RideCancelled",
      "type": "event"
    },
    {
      "anonymous": false,
      "inputs": [
        {
          "indexed": false,
          "internalType": "string",
          "name": "rideId",
          "type": "string"
        },
        {
          "indexed": false,
          "internalType": "address",
          "name": "driver",
          "type": "address"
        }
      ],
      "name": "RideCompleted",
      "type": "event"
    },
    {
      "anonymous": false,
      "inputs": [
        {
          "indexed": false,
          "internalType": "string",
          "name": "rideId",
          "type": "string"
        },
        {
          "indexed": false,
          "internalType": "address",
          "name": "rider",
          "type": "address"
        },
        {
          "indexed": false,
          "internalType": "uint256",
          "name": "amount",
          "type": "uint256"
        }
      ],
      "name": "RideCreated",
      "type": "event"
    },
    {
      "anonymous": false,
      "inputs": [
        {
          "indexed": false,
          "internalType": "string",
          "name": "rideId",
          "type": "string"
        }
      ],
      "name": "RideDisputed",
      "type": "event"
    },
    {
      "inputs": [
        {
          "internalType": "string",
          "name": "rideId",
          "type": "string"
        }
      ],
      "name": "cancelRide",
      "outputs": [],
      "stateMutability": "nonpayable",
      "type": "function"
    },
    {
      "inputs": [
        {
          "internalType": "string",
          "name": "rideId",
          "type": "string"
        }
      ],
      "name": "completeRide",
      "outputs": [],
      "stateMutability": "nonpayable",
      "type": "function"
    },
    {
      "inputs": [
        {
          "internalType": "string",
          "name": "rideId",
          "type": "string"
        },
        {
          "internalType": "address",
          "name": "driver",
          "type": "address"
        }
      ],
      "name": "createRide",
      "outputs": [],
      "stateMutability": "payable",
      "type": "function"
    },
    {
      "inputs": [],
      "name": "owner",
      "outputs": [
        {
          "internalType": "address",
          "name": "",
          "type": "address"
        }
      ],
      "stateMutability": "view",
      "type": "function"
    },
    {
      "inputs": [
        {
          "internalType": "string",
          "name": "rideId",
          "type": "string"
        }
      ],
      "name": "raiseDispute",
      "outputs": [],
      "stateMutability": "nonpayable",
      "type": "function"
    },
    {
      "inputs": [],
      "name": "renounceOwnership",
      "outputs": [],
      "stateMutability": "nonpayable",
      "type": "function"
    },
    {
      "inputs": [
        {
          "internalType": "string",
          "name": "rideId",
          "type": "string"
        },
        {
          "internalType": "bool",
          "name": "payDriver",
          "type": "bool"
        }
      ],
      "name": "resolveDispute",
      "outputs": [],
      "stateMutability": "nonpayable",
      "type": "function"
    },
    {
      "inputs": [
        {
          "internalType": "string",
          "name": "",
          "type": "string"
        }
      ],
      "name": "rides",
      "outputs": [
        {
          "internalType": "address",
          "name": "rider",
          "type": "address"
        },
        {
          "internalType": "address",
          "name": "driver",
          "type": "address"
        },
        {
          "internalType": "uint256",
          "name": "amount",
          "type": "uint256"
        },
        {
          "internalType": "enum RidePaymentEscrow.RideStatus",
          "name": "status",
          "type": "uint8"
        }
      ],
      "stateMutability": "view",
      "type": "function"
    },
    {
      "inputs": [
        {
          "internalType": "address",
          "name": "newOwner",
          "type": "address"
        }
      ],
      "name": "transferOwnership",
      "outputs": [],
      "stateMutability": "nonpayable",
      "type": "function"
    }
  ],
  "bytecode": "0x608060405234801561001057600080fd5b5061002d61002261003260201b60201c565b61003a60201b60201c565b6100fe565b600033905090565b60008060009054906101000a900473ffffffffffffffffffffffffffffffffffffffff169050816000806101000a81548173ffffffffffffffffffffffffffffffffffffffff021916908373ffffffffffffffffffffffffffffffffffffffff1602179055508173ffffffffffffffffffffffffffffffffffffffff168173ffffffffffffffffffffffffffffffffffffffff167f8be0079c531659141344cd1fd0a4f28419497f9722a3daafe3b4186f6b6457e060405160405180910390a35050565b6118818061010d6000396000f3fe6080604052600436106100865760003560e01c8063ce42262611610059578063ce4226261461011f578063d4126e6f14610148578063e3abb3d514610188578063efcb9f40146101b1578063f2fde38b146101cd57610086565b8063710214321461008b578063715018a6146100b4578063725a3b4b146100cb5780638da5cb5b146100f4575b600080fd5b34801561009757600080fd5b506100b260048036038101906100ad9190610fc8565b6101f6565b005b3480156100c057600080fd5b506100c961041f565b005b3480156100d757600080fd5b506100f260048036038101906100ed9190610fc8565b610433565b005b34801561010057600080fd5b506101096105a9565b6040516101169190611052565b60405180910390f35b34801561012b57600080fd5b50610146600480360381019061014191906110a5565b6105d2565b005b34801561015457600080fd5b5061016f600480360381019061016a9190610fc8565b610790565b60405161017f9493929190611191565b60405180910390f35b34801561019457600080fd5b506101af60048036038101906101aa9190610fc8565b610823565b005b6101cb60048036038101906101c69190611202565b610a26565b005b3480156101d957600080fd5b506101f460048036038101906101ef919061125e565b610ca1565b005b600060018260405161020891906112fc565b908152602001604051809103902090506000600381111561022c5761022b61111a565b5b8160030160009054906101000a900460ff1660038111156102505761024f61111a565b5b14610290576040517f08c379a000000000000000000000000000000000000000000000000000000000815260040161028790611370565b60405180910390fd5b8060000160009054906101000a900473ffffffffffffffffffffffffffffffffffffffff1673ffffffffffffffffffffffffffffffffffffffff163373ffffffffffffffffffffffffffffffffffffffff1614610322576040517f08c379a0000000000000000000000000000000000000000000000000000000008152600401610319906113dc565b60405180910390fd5b60018160030160006101000a81548160ff0219169083600381111561034a5761034961111a565b5b02179055508060010160009054906101000a900473ffffffffffffffffffffffffffffffffffffffff1673ffffffffffffffffffffffffffffffffffffffff166108fc82600201549081150290604051600060405180830381858888f193505050501580156103bd573d6000803e3d6000fd5b507f776ca57e84ef3a1688956195930247f00ab4e4ca125030d13031d8f2ea88deed828260010160009054906101000a900473ffffffffffffffffffffffffffffffffffffffff16604051610413929190611435565b60405180910390a15050565b610427610d24565b6104316000610da2565b565b600060018260405161044591906112fc565b908152602001604051809103902090508060000160009054906101000a900473ffffffffffffffffffffffffffffffffffffffff1673ffffffffffffffffffffffffffffffffffffffff163373ffffffffffffffffffffffffffffffffffffffff16148061050257508060010160009054906101000a900473ffffffffffffffffffffffffffffffffffffffff1673ffffffffffffffffffffffffffffffffffffffff163373ffffffffffffffffffffffffffffffffffffffff16145b610541576040517f08c379a0000000000000000000000000000000000000000000000000000000008152600401610538906114b1565b60405180910390fd5b60028160030160006101000a81548160ff021916908360038111156105695761056861111a565b5b02179055507fea5b5bdc4e46dffa55db7b775e9be2a36e41dec2a7d704cb253e698cb830cdbb8260405161059d91906114d1565b60405180910390a15050565b60008060009054906101000a900473ffffffffffffffffffffffffffffffffffffffff16905090565b6105da610d24565b60006001836040516105ec91906112fc565b90815260200160405180910390209050600260038111156106105761060f61111a565b5b8160030160009054906101000a900460ff1660038111156106345761063361111a565b5b14610674576040517f08c379a000000000000000000000000000000000000000000000000000000000815260040161066b9061153f565b60405180910390fd5b81156106ee578060010160009054906101000a900473ffffffffffffffffffffffffffffffffffffffff1673ffffffffffffffffffffffffffffffffffffffff166108fc82600201549081150290604051600060405180830381858888f193505050501580156106e8573d6000803e3d6000fd5b5061075e565b8060000160009054906101000a900473ffffffffffffffffffffffffffffffffffffffff1673ffffffffffffffffffffffffffffffffffffffff166108fc82600201549081150290604051600060405180830381858888f1935050505015801561075c573d6000803e3d6000fd5b505b60018160030160006101000a81548160ff021916908360038111156107865761078561111a565b5b0217905550505050565b6001818051602081018201805184825260208301602085012081835280955050505050506000915090508060000160009054906101000a900473ffffffffffffffffffffffffffffffffffffffff16908060010160009054906101000a900473ffffffffffffffffffffffffffffffffffffffff16908060020154908060030160009054906101000a900460ff16905084565b600060018260405161083591906112fc565b908152602001604051809103902090508060000160009054906101000a900473ffffffffffffffffffffffffffffffffffffffff1673ffffffffffffffffffffffffffffffffffffffff163373ffffffffffffffffffffffffffffffffffffffff16146108d7576040517f08c379a00000000000000000000000000000000000000000000000000000000081526004016108ce906115ab565b60405180910390fd5b600060038111156108eb576108ea61111a565b5b8160030160009054906101000a900460ff16600381111561090f5761090e61111a565b5b1461094f576040517f08c379a000000000000000000000000000000000000000000000000000000000815260040161094690611617565b60405180910390fd5b60038160030160006101000a81548160ff021916908360038111156109775761097661111a565b5b02179055508060000160009054906101000a900473ffffffffffffffffffffffffffffffffffffffff1673ffffffffffffffffffffffffffffffffffffffff166108fc82600201549081150290604051600060405180830381858888f193505050501580156109ea573d6000803e3d6000fd5b507f80856c2f7507e75809f236ccba3f43b5a562b03c7dcf3b66e069befe50a4d22282604051610a1a91906114d1565b60405180910390a15050565b600073ffffffffffffffffffffffffffffffffffffffff16600183604051610a4e91906112fc565b908152602001604051809103902060000160009054906101000a900473ffffffffffffffffffffffffffffffffffffffff1673ffffffffffffffffffffffffffffffffffffffff1614610ad6576040517f08c379a0000000000000000000000000000000000000000000000000000000008152600401610acd90611683565b60405180910390fd5b60003411610b19576040517f08c379a0000000000000000000000000000000000000000000000000000000008152600401610b10906116ef565b60405180910390fd5b60405180608001604052803373ffffffffffffffffffffffffffffffffffffffff1681526020018273ffffffffffffffffffffffffffffffffffffffff16815260200134815260200160006003811115610b7657610b7561111a565b5b815250600183604051610b8991906112fc565b908152602001604051809103902060008201518160000160006101000a81548173ffffffffffffffffffffffffffffffffffffffff021916908373ffffffffffffffffffffffffffffffffffffffff16021790555060208201518160010160006101000a81548173ffffffffffffffffffffffffffffffffffffffff021916908373ffffffffffffffffffffffffffffffffffffffff1602179055506040820151816002015560608201518160030160006101000a81548160ff02191690836003811115610c5a57610c5961111a565b5b02179055509050507ffb8842422db1070181b96d69a78286d4fef3bb4a04d1dd6257c02db0d2f71035823334604051610c959392919061170f565b60405180910390a15050565b610ca9610d24565b600073ffffffffffffffffffffffffffffffffffffffff168173ffffffffffffffffffffffffffffffffffffffff1603610d18576040517f08c379a0000000000000000000000000000000000000000000000000000000008152600401610d0f906117bf565b60405180910390fd5b610d2181610da2565b50565b610d2c610e66565b73ffffffffffffffffffffffffffffffffffffffff16610d4a6105a9565b73ffffffffffffffffffffffffffffffffffffffff1614610da0576040517f08c379a0000000000000000000000000000000000000000000000000000000008152600401610d979061182b565b60405180910390fd5b565b60008060009054906101000a900473ffffffffffffffffffffffffffffffffffffffff169050816000806101000a81548173ffffffffffffffffffffffffffffffffffffffff021916908373ffffffffffffffffffffffffffffffffffffffff1602179055508173ffffffffffffffffffffffffffffffffffffffff168173ffffffffffffffffffffffffffffffffffffffff167f8be0079c531659141344cd1fd0a4f28419497f9722a3daafe3b4186f6b6457e060405160405180910390a35050565b600033905090565b6000604051905090565b600080fd5b600080fd5b600080fd5b600080fd5b6000601f19601f8301169050919050565b7f4e487b7100000000000000000000000000000000000000000000000000000000600052604160045260246000fd5b610ed582610e8c565b810181811067ffffffffffffffff82111715610ef457610ef3610e9d565b5b80604052505050565b6000610f07610e6e565b9050610f138282610ecc565b919050565b600067ffffffffffffffff821115610f3357610f32610e9d565b5b610f3c82610e8c565b9050602081019050919050565b82818337600083830152505050565b6000610f6b610f6684610f18565b610efd565b905082815260208101848484011115610f8757610f86610e87565b5b610f92848285610f49565b509392505050565b600082601f830112610faf57610fae610e82565b5b8135610fbf848260208601610f58565b91505092915050565b600060208284031215610fde57610fdd610e78565b5b600082013567ffffffffffffffff811115610ffc57610ffb610e7d565b5b61100884828501610f9a565b91505092915050565b600073ffffffffffffffffffffffffffffffffffffffff82169050919050565b600061103c82611011565b9050919050565b61104c81611031565b82525050565b60006020820190506110676000830184611043565b92915050565b60008115159050919050565b6110828161106d565b811461108d57600080fd5b50565b60008135905061109f81611079565b92915050565b600080604083850312156110bc576110bb610e78565b5b600083013567ffffffffffffffff8111156110da576110d9610e7d565b5b6110e685828601610f9a565b92505060206110f785828601611090565b9150509250929050565b6000819050919050565b61111481611101565b82525050565b7f4e487b7100000000000000000000000000000000000000000000000000000000600052602160045260246000fd5b6004811061115a5761115961111a565b5b50565b600081905061116b82611149565b919050565b600061117b8261115d565b9050919050565b61118b81611170565b82525050565b60006080820190506111a66000830187611043565b6111b36020830186611043565b6111c0604083018561110b565b6111cd6060830184611182565b95945050505050565b6111df81611031565b81146111ea57600080fd5b50565b6000813590506111fc816111d6565b92915050565b6000806040838503121561121957611218610e78565b5b600083013567ffffffffffffffff81111561123757611236610e7d565b5b61124385828601610f9a565b9250506020611254858286016111ed565b9150509250929050565b60006020828403121561127457611273610e78565b5b6000611282848285016111ed565b91505092915050565b600081519050919050565b600081905092915050565b60005b838110156112bf5780820151818401526020810190506112a4565b60008484015250505050565b60006112d68261128b565b6112e08185611296565b93506112f08185602086016112a1565b80840191505092915050565b600061130882846112cb565b915081905092915050565b600082825260208201905092915050565b7f496e76616c696420737461746500000000000000000000000000000000000000600082015250565b600061135a600d83611313565b915061136582611324565b602082019050919050565b600060208201905081810360008301526113898161134d565b9050919050565b7f4f6e6c792072696465722063616e20636f6e6669726d00000000000000000000600082015250565b60006113c6601683611313565b91506113d182611390565b602082019050919050565b600060208201905081810360008301526113f5816113b9565b9050919050565b60006114078261128b565b6114118185611313565b93506114218185602086016112a1565b61142a81610e8c565b840191505092915050565b6000604082019050818103600083015261144f81856113fc565b905061145e6020830184611043565b9392505050565b7f556e617574686f72697a65640000000000000000000000000000000000000000600082015250565b600061149b600c83611313565b91506114a682611465565b602082019050919050565b600060208201905081810360008301526114ca8161148e565b9050919050565b600060208201905081810360008301526114eb81846113fc565b905092915050565b7f4e6f742064697370757465640000000000000000000000000000000000000000600082015250565b6000611529600c83611313565b9150611534826114f3565b602082019050919050565b600060208201905081810360008301526115588161151c565b9050919050565b7f4f6e6c7920726964657200000000000000000000000000000000000000000000600082015250565b6000611595600a83611313565b91506115a08261155f565b602082019050919050565b600060208201905081810360008301526115c481611588565b9050919050565b7f43616e6e6f742063616e63656c00000000000000000000000000000000000000600082015250565b6000611601600d83611313565b915061160c826115cb565b602082019050919050565b60006020820190508181036000830152611630816115f4565b9050919050565b7f5269646520657869737473000000000000000000000000000000000000000000600082015250565b600061166d600b83611313565b915061167882611637565b602082019050919050565b6000602082019050818103600083015261169c81611660565b9050919050565b7f5061796d656e7420726571756972656400000000000000000000000000000000600082015250565b60006116d9601083611313565b91506116e4826116a3565b602082019050919050565b60006020820190508181036000830152611708816116cc565b9050919050565b6000606082019050818103600083015261172981866113fc565b90506117386020830185611043565b611745604083018461110b565b949350505050565b7f4f776e61626c653a206e6577206f776e657220697320746865207a65726f206160008201527f6464726573730000000000000000000000000000000000000000000000000000602082015250565b60006117a9602683611313565b91506117b48261174d565b604082019050919050565b600060208201905081810360008301526117d88161179c565b9050919050565b7f4f776e61626c653a2063616c6c6572206973206e6f7420746865206f776e6572600082015250565b6000611815602083611313565b9150611820826117df565b602082019050919050565b6000602082019050818103600083015261184481611808565b905091905056fea26469706673582212206a9aeedd39d436c68f71a3383b6fa4af0fc1a17239223742e4e6a66772a08c5464736f6c63430008180033",
  "linkReferences": {},
  "deployedLinkReferences": {}
}