{
  "_format": "hh-sol-artifact-1",
  "contractName": "VehicleNFT",
  "sourceName": "contracts/VehicleNFT.sol",
  "abi": [
    {
      "inputs": [],
      "stateMutability": "nonpayable",
      "type": "constructor"
    },
    {
      "anonymous": false,
      "inputs": [
        {
          "indexed": true,
          "internalType": "address",
          "name": "owner",
          "type": "address"
        },
        {
          "indexed": true,
          "internalType": "address",
          "name": "approved",
          "type": "address"
        },
        {
          "indexed": true,
          "internalType": "uint256",
          "name": "tokenId",
          "type": "uint256"
        }
      ],
      "name": "Approval",
      "type": "event"
    },
    {
      "anonymous": false,
      "inputs": [
        {
          "indexed": true,
          "internalType": "address",
          "name": "owner",
          "type": "address"
        },
        {
          "indexed": true,
          "internalType": "address",
          "name": "operator",
          "type": "address"
        },
        {
          "indexed": false,
          "internalType": "bool",
          "name": "approved",
          "type": "bool"
        }
      ],
      "name": "ApprovalForAll",
      "type": "event"
    },
    {
      "anonymous": false,
      "inputs": [
        {
          "indexed": true,
          "internalType": "address",
          "name": "previousOwner",
          "type": "address"
        },
        {
          "indexed": true,
          "internalType": "address",
          "name": "newOwner",
          "type": "address"
        }
      ],
      "name": "OwnershipTransferred",
      "type": "event"
    },
    {
      "anonymous": false,
      "inputs": [
        {
          "indexed": true,
          "internalType": "address",
          "name": "from",
          "type": "address"
        },
        {
          "indexed": true,
          "internalType": "address",
          "name": "to",
          "type": "address"
        },
        {
          "indexed": true,
          "internalType": "uint256",
          "name": "tokenId",
          "type": "uint256"
        }
      ],
      "name": "Transfer",
      "type": "event"
    },
    {
      "anonymous": false,
      "inputs": [
        {
          "indexed": false,
          "internalType": "uint256",
          "name": "tokenId",
          "type": "uint256"
        },
        {
          "indexed": false,
          "internalType": "address",
          "name": "owner",
          "type": "address"
        }
      ],
      "name": "VehicleRegistered",
      "type": "event"
    },
    {
      "inputs": [
        {
          "internalType": "address",
          "name": "to",
          "type": "address"
        },
        {
          "internalType": "uint256",
          "name": "tokenId",
          "type": "uint256"
        }
      ],
      "name": "approve",
      "outputs": [],
      "stateMutability": "nonpayable",
      "type": "function"
    },
    {
      "inputs": [
        {
          "internalType": "address",
          "name": "owner",
          "type": "address"
        }
      ],
      "name": "balanceOf",
      "outputs": [
        {
          "internalType": "uint256",
          "name": "",
          "type": "uint256"
        }
      ],
      "stateMutability": "view",
      "type": "function"
    },
    {
      "inputs": [
        {
          "internalType": "uint256",
          "name": "tokenId",
          "type": "uint256"
        }
      ],
      "name": "getApproved",
      "outputs": [
        {
          "internalType": "address",
          "name": "",
          "type": "address"
        }
      ],
      "stateMutability": "view",
      "type": "function"
    },
    {
      "inputs": [
        {
          "internalType": "uint256",
          "name": "tokenId",
          "type": "uint256"
        }
      ],
      "name": "getVehicle",
      "outputs": [
        {
          "components": [
            {
              "internalType": "uint256",
              "name": "tokenId",
              "type": "uint256"
            },
            {
              "internalType": "address",
              "name": "owner",
              "type": "address"
            },
            {
              "internalType": "string",
              "name": "metadataURI",
              "type": "string"
            },
            {
              "internalType": "uint256",
              "name": "createdAt",
              "type": "uint256"
            }
          ],
          "internalType": "struct VehicleNFT.Vehicle",
          "name": "",
          "type": "tuple"
        }
      ],
      "stateMutability": "view",
      "type": "function"
    },
    {
      "inputs": [
        {
          "internalType": "address",
          "name": "owner",
          "type": "address"
        },
        {
          "internalType": "address",
          "name": "operator",
          "type": "address"
        }
      ],
      "name": "isApprovedForAll",
      "outputs": [
        {
          "internalType": "bool",
          "name": "",
          "type": "bool"
        }
      ],
      "stateMutability": "view",
      "type": "function"
    },
    {
      "inputs": [],
      "name": "name",
      "outputs": [
        {
          "internalType": "string",
          "name": "",
          "type": "string"
        }
      ],
      "stateMutability": "view",
      "type": "function"
    },
    {
      "inputs": [],
      "name": "owner",
      "outputs": [
        {
          "internalType": "address",
          "name": "",
          "type": "address"
        }
      ],
      "stateMutability": "view",
      "type": "function"
    },
    {
      "inputs": [
        {
          "internalType": "uint256",
          "name": "tokenId",
          "type": "uint256"
        }
      ],
      "name": "ownerOf",
      "outputs": [
        {
          "internalType": "address",
          "name": "",
          "type": "address"
        }
      ],
      "stateMutability": "view",
      "type": "function"
    },
    {
      "inputs": [
        {
          "internalType": "string",
          "name": "_metadataURI",
          "type": "string"
        }
      ],
      "name": "registerVehicle",
      "outputs": [],
      "stateMutability": "nonpayable",
      "type": "function"
    },
    {
      "inputs": [],
      "name": "renounceOwnership",
      "outputs": [],
      "stateMutability": "nonpayable",
      "type": "function"
    },
    {
      "inputs": [
        {
          "internalType": "address",
          "name": "from",
          "type": "address"
        },
        {
          "internalType": "address",
          "name": "to",
          "type": "address"
        },
        {
          "internalType": "uint256",
          "name": "tokenId",
          "type": "uint256"
        }
      ],
      "name": "safeTransferFrom",
      "outputs": [],
      "stateMutability": "nonpayable",
      "type": "function"
    },
    {
      "inputs": [
        {
          "internalType": "address",
          "name": "from",
          "type": "address"
        },
        {
          "internalType": "address",
          "name": "to",
          "type": "address"
        },
        {
          "internalType": "uint256",
          "name": "tokenId",
          "type": "uint256"
        },
        {
          "internalType": "bytes",
          "name": "data",
          "type": "bytes"
        }
      ],
      "name": "safeTransferFrom",
      "outputs": [],
      "stateMutability": "nonpayable",
      "type": "function"
    },
    {
      "inputs": [
        {
          "internalType": "address",
          "name": "operator",
          "type": "address"
        },
        {
          "internalType": "bool",
          "name": "approved",
          "type": "bool"
        }
      ],
      "name": "setApprovalForAll",
      "outputs": [],
      "stateMutability": "nonpayable",
      "type": "function"
    },
    {
      "inputs": [
        {
          "internalType": "bytes4",
          "name": "interfaceId",
          "type": "bytes4"
        }
      ],
      "name": "supportsInterface",
      "outputs": [
        {
          "internalType": "bool",
          "name": "",
          "type": "bool"
        }
      ],
      "stateMutability": "view",
      "type": "function"
    },
    {
      "inputs": [],
      "name": "symbol",
      "outputs": [
        {
          "internalType": "string",
          "name": "",
          "type": "string"
        }
      ],
      "stateMutability": "view",
      "type": "function"
    },
    {
      "inputs": [],
      "name": "tokenCounter",
      "outputs": [
        {
          "internalType": "uint256",
          "name": "",
          "type": "uint256"
        }
      ],
      "stateMutability": "view",
      "type": "function"
    },
    {
      "inputs": [
        {
          "internalType": "uint256",
          "name": "tokenId",
          "type": "uint256"
        }
      ],
      "name": "tokenURI",
      "outputs": [
        {
          "internalType": "string",
          "name": "",
          "type": "string"
        }
      ],
      "stateMutability": "view",
      "type": "function"
    },
    {
      "inputs": [
        {
          "internalType": "address",
          "name": "from",
          "type": "address"
        },
        {
          "internalType": "address",
          "name": "to",
          "type": "address"
        },
        {
          "internalType": "uint256",
          "name": "tokenId",
          "type": "uint256"
        }
      ],
      "name": "transferFrom",
      "outputs": [],
      "stateMutability": "nonpayable",
      "type": "function"
    },
    {
      "inputs": [
        {
          "internalType": "address",
          "name": "newOwner",
          "type": "address"
        }
      ],
      "name": "transferOwnership",
      "outputs": [],
      "stateMutability": "nonpayable",
      "type": "function"
    },
    {
      "inputs": [
        {
          "internalType": "uint256",
          "name": "",
          "type": "uint256"
        }
      ],
      "name": "vehicles",
      "outputs": [
        {
          "internalType": "uint256",
          "name": "tokenId",
          "type": "uint256"
        },
        {
          "internalType": "address",
          "name": "owner",
          "type": "address"
        },
        {
          "internalType": "string",
          "name": "metadataURI",
          "type": "string"
        },
        {
          "internalType": "uint256",
          "name": "createdAt",
          "type": "uint256"
        }
      ],
      "stateMutability": "view",
      "type": "function"
    }
  ],
  "bytecode": "0x60806040523480156200001157600080fd5b506040518060400160405280600e81526020017f526964657a792056656869636c650000000000000000000000000000000000008152506040518060400160405280600381526020017f525a56000000000000000000000000000000000000000000000000000000000081525081600090816200008f91906200041a565b508060019081620000a191906200041a565b505050620000c4620000b8620000d260201b60201c565b620000da60201b60201c565b600060078190555062000501565b600033905090565b6000600660009054906101000a900473ffffffffffffffffffffffffffffffffffffffff16905081600660006101000a81548173ffffffffffffffffffffffffffffffffffffffff021916908373ffffffffffffffffffffffffffffffffffffffff1602179055508173ffffffffffffffffffffffffffffffffffffffff168173ffffffffffffffffffffffffffffffffffffffff167f8be0079c531659141344cd1fd0a4f28419497f9722a3daafe3b4186f6b6457e060405160405180910390a35050565b600081519050919050565b7f4e487b7100000000000000000000000000000000000000000000000000000000600052604160045260246000fd5b7f4e487b7100000000000000000000000000000000000000000000000000000000600052602260045260246000fd5b600060028204905060018216806200022257607f821691505b602082108103620002385762000237620001da565b5b50919050565b60008190508160005260206000209050919050565b60006020601f8301049050919050565b600082821b905092915050565b600060088302620002a27fffffffffffffffffffffffffffffffffffffffffffffffffffffffffffffffff8262000263565b620002ae868362000263565b95508019841693508086168417925050509392505050565b6000819050919050565b6000819050919050565b6000620002fb620002f5620002ef84620002c6565b620002d0565b620002c6565b9050919050565b6000819050919050565b6200031783620002da565b6200032f620003268262000302565b84845462000270565b825550505050565b600090565b6200034662000337565b620003538184846200030c565b505050565b5b818110156200037b576200036f6000826200033c565b60018101905062000359565b5050565b601f821115620003ca5762000394816200023e565b6200039f8462000253565b81016020851015620003af578190505b620003c7620003be8562000253565b83018262000358565b50505b505050565b600082821c905092915050565b6000620003ef60001984600802620003cf565b1980831691505092915050565b60006200040a8383620003dc565b9150826002028217905092915050565b6200042582620001a0565b67ffffffffffffffff811115620004415762000440620001ab565b5b6200044d825462000209565b6200045a8282856200037f565b600060209050601f8311600181146200049257600084156200047d578287015190505b620004898582620003fc565b865550620004f9565b601f198416620004a2866200023e565b60005b82811015620004cc57848901518255600182019150602085019450602081019050620004a5565b86831015620004ec5784890151620004e8601f891682620003dc565b8355505b6001600288020188555050505b505050505050565b61317880620005116000396000f3fe608060405234801561001057600080fd5b506004361061012b5760003560e01c80638da5cb5b116100ad578063c87b56dd11610071578063c87b56dd1461032f578063d082e3811461035f578063df7ebb7b1461037d578063e985e9c5146103ad578063f2fde38b146103dd5761012b565b80638da5cb5b1461028857806395d89b41146102a6578063a22cb465146102c4578063b88d4fde146102e0578063b8ba95fa146102fc5761012b565b806323b872dd116100f457806323b872dd146101e657806342842e0e146102025780636352211e1461021e57806370a082311461024e578063715018a61461027e5761012b565b80626bd2af1461013057806301ffc9a71461014c57806306fdde031461017c578063081812fc1461019a578063095ea7b3146101ca575b600080fd5b61014a60048036038101906101459190611f23565b6103f9565b005b61016660048036038101906101619190611fc4565b61051d565b604051610173919061200c565b60405180910390f35b6101846105ff565b60405161019191906120a6565b60405180910390f35b6101b460048036038101906101af91906120fe565b610691565b6040516101c1919061216c565b60405180910390f35b6101e460048036038101906101df91906121b3565b6106d7565b005b61020060048036038101906101fb91906121f3565b6107ee565b005b61021c600480360381019061021791906121f3565b61084e565b005b610238600480360381019061023391906120fe565b61086e565b604051610245919061216c565b60405180910390f35b61026860048036038101906102639190612246565b6108f4565b6040516102759190612282565b60405180910390f35b6102866109ab565b005b6102906109bf565b60405161029d919061216c565b60405180910390f35b6102ae6109e9565b6040516102bb91906120a6565b60405180910390f35b6102de60048036038101906102d991906122c9565b610a7b565b005b6102fa60048036038101906102f591906123aa565b610a91565b005b610316600480360381019061031191906120fe565b610af3565b604051610326949392919061242d565b60405180910390f35b610349600480360381019061034491906120fe565b610bcb565b60405161035691906120a6565b60405180910390f35b610367610c33565b6040516103749190612282565b60405180910390f35b610397600480360381019061039291906120fe565b610c39565b6040516103a49190612544565b60405180910390f35b6103c760048036038101906103c29190612566565b610d62565b6040516103d4919061200c565b60405180910390f35b6103f760048036038101906103f29190612246565b610df6565b005b6000600754905061040a3382610e79565b60405180608001604052808281526020013373ffffffffffffffffffffffffffffffffffffffff16815260200183815260200142815250600860008381526020019081526020016000206000820151816000015560208201518160010160006101000a81548173ffffffffffffffffffffffffffffffffffffffff021916908373ffffffffffffffffffffffffffffffffffffffff16021790555060408201518160020190816104ba91906127b2565b5060608201518160030155905050600760008154809291906104db906128b3565b91905055507f5f392c61d263d5e43db807b3b3eb4fec5e7bd977dd126fae15e5f4263ade1d5781336040516105119291906128fb565b60405180910390a15050565b60007f80ac58cd000000000000000000000000000000000000000000000000000000007bffffffffffffffffffffffffffffffffffffffffffffffffffffffff1916827bffffffffffffffffffffffffffffffffffffffffffffffffffffffff191614806105e857507f5b5e139f000000000000000000000000000000000000000000000000000000007bffffffffffffffffffffffffffffffffffffffffffffffffffffffff1916827bffffffffffffffffffffffffffffffffffffffffffffffffffffffff1916145b806105f857506105f782610e97565b5b9050919050565b60606000805461060e906125d5565b80601f016020809104026020016040519081016040528092919081815260200182805461063a906125d5565b80156106875780601f1061065c57610100808354040283529160200191610687565b820191906000526020600020905b81548152906001019060200180831161066a57829003601f168201915b5050505050905090565b600061069c82610f01565b6004600083815260200190815260200160002060009054906101000a900473ffffffffffffffffffffffffffffffffffffffff169050919050565b60006106e28261086e565b90508073ffffffffffffffffffffffffffffffffffffffff168373ffffffffffffffffffffffffffffffffffffffff1603610752576040517f08c379a000000000000000000000000000000000000000000000000000000000815260040161074990612996565b60405180910390fd5b8073ffffffffffffffffffffffffffffffffffffffff16610771610f4c565b73ffffffffffffffffffffffffffffffffffffffff1614806107a0575061079f8161079a610f4c565b610d62565b5b6107df576040517f08c379a00000000000000000000000000000000000000000000000000000000081526004016107d690612a28565b60405180910390fd5b6107e98383610f54565b505050565b6107ff6107f9610f4c565b8261100d565b61083e576040517f08c379a000000000000000000000000000000000000000000000000000000000815260040161083590612aba565b60405180910390fd5b6108498383836110a2565b505050565b61086983838360405180602001604052806000815250610a91565b505050565b60008061087a8361139b565b9050600073ffffffffffffffffffffffffffffffffffffffff168173ffffffffffffffffffffffffffffffffffffffff16036108eb576040517f08c379a00000000000000000000000000000000000000000000000000000000081526004016108e290612b26565b60405180910390fd5b80915050919050565b60008073ffffffffffffffffffffffffffffffffffffffff168273ffffffffffffffffffffffffffffffffffffffff1603610964576040517f08c379a000000000000000000000000000000000000000000000000000000000815260040161095b90612bb8565b60405180910390fd5b600360008373ffffffffffffffffffffffffffffffffffffffff1673ffffffffffffffffffffffffffffffffffffffff168152602001908152602001600020549050919050565b6109b36113d8565b6109bd6000611456565b565b6000600660009054906101000a900473ffffffffffffffffffffffffffffffffffffffff16905090565b6060600180546109f8906125d5565b80601f0160208091040260200160405190810160405280929190818152602001828054610a24906125d5565b8015610a715780601f10610a4657610100808354040283529160200191610a71565b820191906000526020600020905b815481529060010190602001808311610a5457829003601f168201915b5050505050905090565b610a8d610a86610f4c565b838361151c565b5050565b610aa2610a9c610f4c565b8361100d565b610ae1576040517f08c379a0000000000000000000000000000000000000000000000000000000008152600401610ad890612aba565b60405180910390fd5b610aed84848484611688565b50505050565b60086020528060005260406000206000915090508060000154908060010160009054906101000a900473ffffffffffffffffffffffffffffffffffffffff1690806002018054610b42906125d5565b80601f0160208091040260200160405190810160405280929190818152602001828054610b6e906125d5565b8015610bbb5780601f10610b9057610100808354040283529160200191610bbb565b820191906000526020600020905b815481529060010190602001808311610b9e57829003601f168201915b5050505050908060030154905084565b6060610bd682610f01565b6000610be06116e4565b90506000815111610c005760405180602001604052806000815250610c2b565b80610c0a846116fb565b604051602001610c1b929190612c14565b6040516020818303038152906040525b915050919050565b60075481565b610c41611d8b565b60086000838152602001908152602001600020604051806080016040529081600082015481526020016001820160009054906101000a900473ffffffffffffffffffffffffffffffffffffffff1673ffffffffffffffffffffffffffffffffffffffff1673ffffffffffffffffffffffffffffffffffffffff168152602001600282018054610ccf906125d5565b80601f0160208091040260200160405190810160405280929190818152602001828054610cfb906125d5565b8015610d485780601f10610d1d57610100808354040283529160200191610d48565b820191906000526020600020905b815481529060010190602001808311610d2b57829003601f168201915b505050505081526020016003820154815250509050919050565b6000600560008473ffffffffffffffffffffffffffffffffffffffff1673ffffffffffffffffffffffffffffffffffffffff16815260200190815260200160002060008373ffffffffffffffffffffffffffffffffffffffff1673ffffffffffffffffffffffffffffffffffffffff16815260200190815260200160002060009054906101000a900460ff16905092915050565b610dfe6113d8565b600073ffffffffffffffffffffffffffffffffffffffff168173ffffffffffffffffffffffffffffffffffffffff1603610e6d576040517f08c379a0000000000000000000000000000000000000000000000000000000008152600401610e6490612caa565b60405180910390fd5b610e7681611456565b50565b610e938282604051806020016040528060008152506117c9565b5050565b60007f01ffc9a7000000000000000000000000000000000000000000000000000000007bffffffffffffffffffffffffffffffffffffffffffffffffffffffff1916827bffffffffffffffffffffffffffffffffffffffffffffffffffffffff1916149050919050565b610f0a81611824565b610f49576040517f08c379a0000000000000000000000000000000000000000000000000000000008152600401610f4090612b26565b60405180910390fd5b50565b600033905090565b816004600083815260200190815260200160002060006101000a81548173ffffffffffffffffffffffffffffffffffffffff021916908373ffffffffffffffffffffffffffffffffffffffff160217905550808273ffffffffffffffffffffffffffffffffffffffff16610fc78361086e565b73ffffffffffffffffffffffffffffffffffffffff167f8c5be1e5ebec7d5bd14f71427d1e84f3dd0314c0f7b2291e5b200ac8c7c3b92560405160405180910390a45050565b6000806110198361086e565b90508073ffffffffffffffffffffffffffffffffffffffff168473ffffffffffffffffffffffffffffffffffffffff16148061105b575061105a8185610d62565b5b8061109957508373ffffffffffffffffffffffffffffffffffffffff1661108184610691565b73ffffffffffffffffffffffffffffffffffffffff16145b91505092915050565b8273ffffffffffffffffffffffffffffffffffffffff166110c28261086e565b73ffffffffffffffffffffffffffffffffffffffff1614611118576040517f08c379a000000000000000000000000000000000000000000000000000000000815260040161110f90612d3c565b60405180910390fd5b600073ffffffffffffffffffffffffffffffffffffffff168273ffffffffffffffffffffffffffffffffffffffff1603611187576040517f08c379a000000000000000000000000000000000000000000000000000000000815260040161117e90612dce565b60405180910390fd5b6111948383836001611865565b8273ffffffffffffffffffffffffffffffffffffffff166111b48261086e565b73ffffffffffffffffffffffffffffffffffffffff161461120a576040517f08c379a000000000000000000000000000000000000000000000000000000000815260040161120190612d3c565b60405180910390fd5b6004600082815260200190815260200160002060006101000a81549073ffffffffffffffffffffffffffffffffffffffff02191690556001600360008573ffffffffffffffffffffffffffffffffffffffff1673ffffffffffffffffffffffffffffffffffffffff168152602001908152602001600020600082825403925050819055506001600360008473ffffffffffffffffffffffffffffffffffffffff1673ffffffffffffffffffffffffffffffffffffffff16815260200190815260200160002060008282540192505081905550816002600083815260200190815260200160002060006101000a81548173ffffffffffffffffffffffffffffffffffffffff021916908373ffffffffffffffffffffffffffffffffffffffff160217905550808273ffffffffffffffffffffffffffffffffffffffff168473ffffffffffffffffffffffffffffffffffffffff167fddf252ad1be2c89b69c2b068fc378daa952ba7f163c4a11628f55a4df523b3ef60405160405180910390a4611396838383600161186b565b505050565b60006002600083815260200190815260200160002060009054906101000a900473ffffffffffffffffffffffffffffffffffffffff169050919050565b6113e0610f4c565b73ffffffffffffffffffffffffffffffffffffffff166113fe6109bf565b73ffffffffffffffffffffffffffffffffffffffff1614611454576040517f08c379a000000000000000000000000000000000000000000000000000000000815260040161144b90612e3a565b60405180910390fd5b565b6000600660009054906101000a900473ffffffffffffffffffffffffffffffffffffffff16905081600660006101000a81548173ffffffffffffffffffffffffffffffffffffffff021916908373ffffffffffffffffffffffffffffffffffffffff1602179055508173ffffffffffffffffffffffffffffffffffffffff168173ffffffffffffffffffffffffffffffffffffffff167f8be0079c531659141344cd1fd0a4f28419497f9722a3daafe3b4186f6b6457e060405160405180910390a35050565b8173ffffffffffffffffffffffffffffffffffffffff168373ffffffffffffffffffffffffffffffffffffffff160361158a576040517f08c379a000000000000000000000000000000000000000000000000000000000815260040161158190612ea6565b60405180910390fd5b80600560008573ffffffffffffffffffffffffffffffffffffffff1673ffffffffffffffffffffffffffffffffffffffff16815260200190815260200160002060008473ffffffffffffffffffffffffffffffffffffffff1673ffffffffffffffffffffffffffffffffffffffff16815260200190815260200160002060006101000a81548160ff0219169083151502179055508173ffffffffffffffffffffffffffffffffffffffff168373ffffffffffffffffffffffffffffffffffffffff167f17307eab39ab6107e8899845ad3d59bd9653f200f220920489ca2b5937696c318360405161167b919061200c565b60405180910390a3505050565b6116938484846110a2565b61169f84848484611871565b6116de576040517f08c379a00000000000000000000000000000000000000000000000000000000081526004016116d590612f38565b60405180910390fd5b50505050565b606060405180602001604052806000815250905090565b60606000600161170a846119f8565b01905060008167ffffffffffffffff81111561172957611728611df8565b5b6040519080825280601f01601f19166020018201604052801561175b5781602001600182028036833780820191505090505b509050600082602001820190505b6001156117be578080600190039150507f3031323334353637383961626364656600000000000000000000000000000000600a86061a8153600a85816117b2576117b1612f58565b5b04945060008503611769575b819350505050919050565b6117d38383611b4b565b6117e06000848484611871565b61181f576040517f08c379a000000000000000000000000000000000000000000000000000000000815260040161181690612f38565b60405180910390fd5b505050565b60008073ffffffffffffffffffffffffffffffffffffffff166118468361139b565b73ffffffffffffffffffffffffffffffffffffffff1614159050919050565b50505050565b50505050565b60006118928473ffffffffffffffffffffffffffffffffffffffff16611d68565b156119eb578373ffffffffffffffffffffffffffffffffffffffff1663150b7a026118bb610f4c565b8786866040518563ffffffff1660e01b81526004016118dd9493929190612fdc565b6020604051808303816000875af192505050801561191957506040513d601f19601f82011682018060405250810190611916919061303d565b60015b61199b573d8060008114611949576040519150601f19603f3d011682016040523d82523d6000602084013e61194e565b606091505b506000815103611993576040517f08c379a000000000000000000000000000000000000000000000000000000000815260040161198a90612f38565b60405180910390fd5b805181602001fd5b63150b7a0260e01b7bffffffffffffffffffffffffffffffffffffffffffffffffffffffff1916817bffffffffffffffffffffffffffffffffffffffffffffffffffffffff1916149150506119f0565b600190505b949350505050565b600080600090507a184f03e93ff9f4daa797ed6e38ed64bf6a1f0100000000000000008310611a56577a184f03e93ff9f4daa797ed6e38ed64bf6a1f0100000000000000008381611a4c57611a4b612f58565b5b0492506040810190505b6d04ee2d6d415b85acef81000000008310611a93576d04ee2d6d415b85acef81000000008381611a8957611a88612f58565b5b0492506020810190505b662386f26fc100008310611ac257662386f26fc100008381611ab857611ab7612f58565b5b0492506010810190505b6305f5e1008310611aeb576305f5e1008381611ae157611ae0612f58565b5b0492506008810190505b6127108310611b10576127108381611b0657611b05612f58565b5b0492506004810190505b60648310611b335760648381611b2957611b28612f58565b5b0492506002810190505b600a8310611b42576001810190505b80915050919050565b600073ffffffffffffffffffffffffffffffffffffffff168273ffffffffffffffffffffffffffffffffffffffff1603611bba576040517f08c379a0000000000000000000000000000000000000000000000000000000008152600401611bb1906130b6565b60405180910390fd5b611bc381611824565b15611c03576040517f08c379a0000000000000000000000000000000000000000000000000000000008152600401611bfa90613122565b60405180910390fd5b611c11600083836001611865565b611c1a81611824565b15611c5a576040517f08c379a0000000000000000000000000000000000000000000000000000000008152600401611c5190613122565b60405180910390fd5b6001600360008473ffffffffffffffffffffffffffffffffffffffff1673ffffffffffffffffffffffffffffffffffffffff16815260200190815260200160002060008282540192505081905550816002600083815260200190815260200160002060006101000a81548173ffffffffffffffffffffffffffffffffffffffff021916908373ffffffffffffffffffffffffffffffffffffffff160217905550808273ffffffffffffffffffffffffffffffffffffffff16600073ffffffffffffffffffffffffffffffffffffffff167fddf252ad1be2c89b69c2b068fc378daa952ba7f163c4a11628f55a4df523b3ef60405160405180910390a4611d6460008383600161186b565b5050565b6000808273ffffffffffffffffffffffffffffffffffffffff163b119050919050565b604051806080016040528060008152602001600073ffffffffffffffffffffffffffffffffffffffff16815260200160608152602001600081525090565b6000604051905090565b600080fd5b600080fd5b600080fd5b600080fd5b6000601f19601f8301169050919050565b7f4e487b7100000000000000000000000000000000000000000000000000000000600052604160045260246000fd5b611e3082611de7565b810181811067ffffffffffffffff82111715611e4f57611e4e611df8565b5b80604052505050565b6000611e62611dc9565b9050611e6e8282611e27565b919050565b600067ffffffffffffffff821115611e8e57611e8d611df8565b5b611e9782611de7565b9050602081019050919050565b82818337600083830152505050565b6000611ec6611ec184611e73565b611e58565b905082815260208101848484011115611ee257611ee1611de2565b5b611eed848285611ea4565b509392505050565b600082601f830112611f0a57611f09611ddd565b5b8135611f1a848260208601611eb3565b91505092915050565b600060208284031215611f3957611f38611dd3565b5b600082013567ffffffffffffffff811115611f5757611f56611dd8565b5b611f6384828501611ef5565b91505092915050565b60007fffffffff0000000000000000000000000000000000000000000000000000000082169050919050565b611fa181611f6c565b8114611fac57600080fd5b50565b600081359050611fbe81611f98565b92915050565b600060208284031215611fda57611fd9611dd3565b5b6000611fe884828501611faf565b91505092915050565b60008115159050919050565b61200681611ff1565b82525050565b60006020820190506120216000830184611ffd565b92915050565b600081519050919050565b600082825260208201905092915050565b60005b83811015612061578082015181840152602081019050612046565b60008484015250505050565b600061207882612027565b6120828185612032565b9350612092818560208601612043565b61209b81611de7565b840191505092915050565b600060208201905081810360008301526120c0818461206d565b905092915050565b6000819050919050565b6120db816120c8565b81146120e657600080fd5b50565b6000813590506120f8816120d2565b92915050565b60006020828403121561211457612113611dd3565b5b6000612122848285016120e9565b91505092915050565b600073ffffffffffffffffffffffffffffffffffffffff82169050919050565b60006121568261212b565b9050919050565b6121668161214b565b82525050565b6000602082019050612181600083018461215d565b92915050565b6121908161214b565b811461219b57600080fd5b50565b6000813590506121ad81612187565b92915050565b600080604083850312156121ca576121c9611dd3565b5b60006121d88582860161219e565b92505060206121e9858286016120e9565b9150509250929050565b60008060006060848603121561220c5761220b611dd3565b5b600061221a8682870161219e565b935050602061222b8682870161219e565b925050604061223c868287016120e9565b9150509250925092565b60006020828403121561225c5761225b611dd3565b5b600061226a8482850161219e565b91505092915050565b61227c816120c8565b82525050565b60006020820190506122976000830184612273565b92915050565b6122a681611ff1565b81146122b157600080fd5b50565b6000813590506122c38161229d565b92915050565b600080604083850312156122e0576122df611dd3565b5b60006122ee8582860161219e565b92505060206122ff858286016122b4565b9150509250929050565b600067ffffffffffffffff82111561232457612323611df8565b5b61232d82611de7565b9050602081019050919050565b600061234d61234884612309565b611e58565b90508281526020810184848401111561236957612368611de2565b5b612374848285611ea4565b509392505050565b600082601f83011261239157612390611ddd565b5b81356123a184826020860161233a565b91505092915050565b600080600080608085870312156123c4576123c3611dd3565b5b60006123d28782880161219e565b94505060206123e38782880161219e565b93505060406123f4878288016120e9565b925050606085013567ffffffffffffffff81111561241557612414611dd8565b5b6124218782880161237c565b91505092959194509250565b60006080820190506124426000830187612273565b61244f602083018661215d565b8181036040830152612461818561206d565b90506124706060830184612273565b95945050505050565b612482816120c8565b82525050565b6124918161214b565b82525050565b600082825260208201905092915050565b60006124b382612027565b6124bd8185612497565b93506124cd818560208601612043565b6124d681611de7565b840191505092915050565b60006080830160008301516124f96000860182612479565b50602083015161250c6020860182612488565b506040830151848203604086015261252482826124a8565b91505060608301516125396060860182612479565b508091505092915050565b6000602082019050818103600083015261255e81846124e1565b905092915050565b6000806040838503121561257d5761257c611dd3565b5b600061258b8582860161219e565b925050602061259c8582860161219e565b9150509250929050565b7f4e487b7100000000000000000000000000000000000000000000000000000000600052602260045260246000fd5b600060028204905060018216806125ed57607f821691505b602082108103612600576125ff6125a6565b5b50919050565b60008190508160005260206000209050919050565b60006020601f8301049050919050565b600082821b905092915050565b6000600883026126687fffffffffffffffffffffffffffffffffffffffffffffffffffffffffffffffff8261262b565b612672868361262b565b95508019841693508086168417925050509392505050565b6000819050919050565b60006126af6126aa6126a5846120c8565b61268a565b6120c8565b9050919050565b6000819050919050565b6126c983612694565b6126dd6126d5826126b6565b848454612638565b825550505050565b600090565b6126f26126e5565b6126fd8184846126c0565b505050565b5b81811015612721576127166000826126ea565b600181019050612703565b5050565b601f8211156127665761273781612606565b6127408461261b565b8101602085101561274f578190505b61276361275b8561261b565b830182612702565b50505b505050565b600082821c905092915050565b60006127896000198460080261276b565b1980831691505092915050565b60006127a28383612778565b9150826002028217905092915050565b6127bb82612027565b67ffffffffffffffff8111156127d4576127d3611df8565b5b6127de82546125d5565b6127e9828285612725565b600060209050601f83116001811461281c576000841561280a578287015190505b6128148582612796565b86555061287c565b601f19841661282a86612606565b60005b828110156128525784890151825560018201915060208501945060208101905061282d565b8683101561286f578489015161286b601f891682612778565b8355505b6001600288020188555050505b505050505050565b7f4e487b7100000000000000000000000000000000000000000000000000000000600052601160045260246000fd5b60006128be826120c8565b91507fffffffffffffffffffffffffffffffffffffffffffffffffffffffffffffffff82036128f0576128ef612884565b5b600182019050919050565b60006040820190506129106000830185612273565b61291d602083018461215d565b9392505050565b7f4552433732313a20617070726f76616c20746f2063757272656e74206f776e6560008201527f7200000000000000000000000000000000000000000000000000000000000000602082015250565b6000612980602183612032565b915061298b82612924565b604082019050919050565b600060208201905081810360008301526129af81612973565b9050919050565b7f4552433732313a20617070726f76652063616c6c6572206973206e6f7420746f60008201527f6b656e206f776e6572206f7220617070726f76656420666f7220616c6c000000602082015250565b6000612a12603d83612032565b9150612a1d826129b6565b604082019050919050565b60006020820190508181036000830152612a4181612a05565b9050919050565b7f4552433732313a2063616c6c6572206973206e6f7420746f6b656e206f776e6560008201527f72206f7220617070726f76656400000000000000000000000000000000000000602082015250565b6000612aa4602d83612032565b9150612aaf82612a48565b604082019050919050565b60006020820190508181036000830152612ad381612a97565b9050919050565b7f4552433732313a20696e76616c696420746f6b656e2049440000000000000000600082015250565b6000612b10601883612032565b9150612b1b82612ada565b602082019050919050565b60006020820190508181036000830152612b3f81612b03565b9050919050565b7f4552433732313a2061646472657373207a65726f206973206e6f74206120766160008201527f6c6964206f776e65720000000000000000000000000000000000000000000000602082015250565b6000612ba2602983612032565b9150612bad82612b46565b604082019050919050565b60006020820190508181036000830152612bd181612b95565b9050919050565b600081905092915050565b6000612bee82612027565b612bf88185612bd8565b9350612c08818560208601612043565b80840191505092915050565b6000612c208285612be3565b9150612c2c8284612be3565b91508190509392505050565b7f4f776e61626c653a206e6577206f776e657220697320746865207a65726f206160008201527f6464726573730000000000000000000000000000000000000000000000000000602082015250565b6000612c94602683612032565b9150612c9f82612c38565b604082019050919050565b60006020820190508181036000830152612cc381612c87565b9050919050565b7f4552433732313a207472616e736665722066726f6d20696e636f72726563742060008201527f6f776e6572000000000000000000000000000000000000000000000000000000602082015250565b6000612d26602583612032565b9150612d3182612cca565b604082019050919050565b60006020820190508181036000830152612d5581612d19565b9050919050565b7f4552433732313a207472616e7366657220746f20746865207a65726f2061646460008201527f7265737300000000000000000000000000000000000000000000000000000000602082015250565b6000612db8602483612032565b9150612dc382612d5c565b604082019050919050565b60006020820190508181036000830152612de781612dab565b9050919050565b7f4f776e61626c653a2063616c6c6572206973206e6f7420746865206f776e6572600082015250565b6000612e24602083612032565b9150612e2f82612dee565b602082019050919050565b60006020820190508181036000830152612e5381612e17565b9050919050565b7f4552433732313a20617070726f766520746f2063616c6c657200000000000000600082015250565b6000612e90601983612032565b9150612e9b82612e5a565b602082019050919050565b60006020820190508181036000830152612ebf81612e83565b9050919050565b7f4552433732313a207472616e7366657220746f206e6f6e20455243373231526560008201527f63656976657220696d706c656d656e7465720000000000000000000000000000602082015250565b6000612f22603283612032565b9150612f2d82612ec6565b604082019050919050565b60006020820190508181036000830152612f5181612f15565b9050919050565b7f4e487b7100000000000000000000000000000000000000000000000000000000600052601260045260246000fd5b600081519050919050565b600082825260208201905092915050565b6000612fae82612f87565b612fb88185612f92565b9350612fc8818560208601612043565b612fd181611de7565b840191505092915050565b6000608082019050612ff1600083018761215d565b612ffe602083018661215d565b61300b6040830185612273565b818103606083015261301d8184612fa3565b905095945050505050565b60008151905061303781611f98565b92915050565b60006020828403121561305357613052611dd3565b5b600061306184828501613028565b91505092915050565b7f4552433732313a206d696e7420746f20746865207a65726f2061646472657373600082015250565b60006130a0602083612032565b91506130ab8261306a565b602082019050919050565b600060208201905081810360008301526130cf81613093565b9050919050565b7f4552433732313a20746f6b656e20616c7265616479206d696e74656400000000600082015250565b600061310c601c83612032565b9150613117826130d6565b602082019050919050565b6000602082019050818103600083015261313b816130ff565b905091905056fea26469706673582212203f81061ff764c483044d9548bdb4ceb861bf77e006b9ecdf38128f4a575a3f1464736f6c63430008180033",
  "linkReferences": {},
  "deployedLinkReferences": {}
}